S00F000067726F757033372E737265637E
S11300000C9475000C9492000C9492000C94920041
S11300100C9492000C9492000C9492000C94920014
S11300200C9492000C9492000C9492000C94920004
S11300300C9492000C9492000C9492000C949200F4
S11300400C9492000C9492000C9492000C949200E4
S11300500C9492000C9492000C9492000C949200D4
S11300600C9492000C94920007634236B79BD8A775
S11300701A39685618AEBAAB558C1D3CB7CC5763C9
S1130080BD6DEDFD753EF6177231BF000000803F77
S113009008000000BE922449123EABAAAA2ABECD93
S11300A0CCCC4C3E00000080BEABAAAAAA3E000005
S11300B00000BF000000803F0000000000084178FD
S11300C0D3BB4387D1133D190E3CC3BD4282AD2B34
S11300D03E68EC8276BED98FE1A93E4C80EFFFBE2C
S11300E001C4FF7F3F000000000011241FBECFEFBA
S11300F0D8E0DEBFCDBF11E0A0E0B1E0E4E0FFE076
S113010002C005900D92A036B107D9F721E0A0E610
S1130110B1E001C01D92A136B207E1F70E941002BE
S11301200C9480070C9400001092C50087E680931D
S1130130C400E1ECF0E0808188608083E2ECF0E0D0
S11301408081866080830895E0ECF0E090819923BB
S1130150E9F38093C600089585B5856085BD16BC16
S11301600895CF92DF92EF92FF926B017C0120E021
S113017030E040E251E40E942004882304F120E0AE
S113018030E048EC52E4C701B6010E942004882301
S1130190CCF020E030E04AE754E4C701B6010E9405
S11301A02004082E000C990B8827990F881F992783
S11301B023E030E0A901481B590BCA0105C080E0C7
S11301C090E002C081E090E0FF90EF90DF90CF904C
S11301D0089590E0413009F44096611103C0805ABB
S11301E09F4F0895613019F4805C9F4F08956230E9
S11301F009F4809608952F923F924F925F926F92E6
S11302007F928F929F92AF92BF92CF92DF92EF92A2
S1130210FF920F931F93CF93DF93CDB7DEB7CA53EB
S1130220D1400FB6F894DEBF0FBECDBF2C014B01F9
S11302301E018DE9280E311CFE0131963F015F013C
S11302406101EE24E394F12C00E010E0C75CDE4F82
S113025019830883C953D14000FD53C0C801112339
S11302600CF4019695958795FC01EE0FFF1FEE0F98
S1130270FF1FE40DF51D4081518162817381F501F9
S113028040835183628373830115110519F006328B
S1130290110589F4880F991F880F991FF401E80F3D
S11302A0F91F80819181A281B381F60180839183BA
S11302B0A283B38367C0C701FF200CF40196959510
S11302C08795880F991F880F991F880D991DFC0128
S11302D03897DC0114972D913D914D915C9160818B
S11302E07181828193810E94B40320E030E040E078
S11302F05FE30E947F05F6016083718382839383A9
S113030041C0F701FF200CF43196F595E795EE0F07
S1130310FF1FEE0FFF1FE40DF51DDF011497208171
S11303203181428153816D917D918D919C910E9487
S1130330B40320E030E040E05FE30E947F05F50174
S11303406083718382839383C75CDE4F2881398104
S1130350C953D14021503109C90199230CF40196A4
S1130360FC01F595E795EE0FFF1FEE0FFF1FE80D5B
S1130370F91D80819181A281B381F60180839183EB
S1130380A283B3830F5F1F4FFFEFEF1AFF0A84E0CE
S1130390C80ED11C94E0A90EB11C0732110509F056
S11303A055CF8E0103561F4FC12CD12C7601F3017A
S11303B061917191819191913F01F101219131916B
S11303C0419151911F010E947F059B01AC01C7011E
S11303D0B6010E94B4036B017C016016710639F703
S11303E020E030E04CE152E40E942504C65CDE4F7C
S11303F00FB6F894DEBF0FBECDBFDF91CF911F9132
S11304000F91FF90EF90DF90CF90BF90AF909F90AF
S11304108F907F906F905F904F903F902F900895B2
S1130420CF93DF93CDB7DEB7C75BD1090FB6F8948E
S1130430DEBF0FBECDBF80E5E0E0F1E0DE01119646
S113044001900D928A95E1F7FE01EF5AFF4F80E586
S1130450DF011D928A95E9F784E19EEAA7EEBFE3E6
S113046080839183A283B38384E19EEAA7E0B0E40E
S113047084839583A683B7838CEE91E5A8E1B0E4E9
S113048080879187A287B3878AE097EDA3E2B0E4DF
S113049084879587A687B78783EC95EFA8E2B0E4B5
S11304A0808B918BA28BB38B84E19EEAA7E2B0E4AC
S11304B0848B958BA68BB78B80E090E0A0E2B0E4B0
S11304C0808F918FA28FB38F8CE59FE8A2E1B0E477
S11304D0848F958FA68FB78F87ED93EAA0E0B0E461
S11304E080A391A3A2A3B3A38CEE91E5A8EDBFE3EF
S11304F084A395A3A6A3B7A38BE794E1AEEABFE3D5
S113050080A791A7A2A7B3A783EC95EFA8E8BFE3C0
S113051084A795A7A6A7B7A78DE39AE0A7E5BFE3AD
S113052080AB91ABA2ABB3AB87ED93EAA0E3BFE39F
S113053084AB95ABA6ABB7AB86E696E6A6E2BFE383
S113054080AF91AFA2AFB3AF8FE892ECA5E3BFE366
S113055084AF95AFA6AFB7AF82E598EBAEE5BFE346
S1130560CF56DF4F88839983AA83BB83C159D04078
S11305708BE794E1AEE8BFE3CB56DF4F88839983E2
S1130580AA83BB83C559D04081EE9AE7A4EBBFE3AD
S1130590C756DF4F88839983AA83BB83C959D04048
S11305A0BF01CE0101960E94FB000E9494000E94AC
S11305B0AC0080E1E0E5F1E0DE01AF55BF4F019012
S11305C00D928A95E1F7812C912C0F2EF3E06F2E7A
S11305D0712CF02DE1EBF0E0EC0FFD1F3496CB54C1
S11305E0DF4FF983E883C55BD040212C322CF1E046
S11305F0C954DF4FF883C75BD040F401EE0FFF1FEF
S1130600EE0FFF1F81EA90E08C0F9D1FE80FF91F8A
S1130610C080D180E280F380C701B6010E94B1009E
S11306205C01BB2423014A185B08B201052C000CB1
S1130630880B990B0E94CF049B01AC0160E070E031
S113064080E291E40E94EC05A70196010E947F05D7
S113065020E030E040E05FE30E94B4030E9497048E
S11306607B01CB54DF4FC880D980C55BD040830168
S11306700A151B0551F4C954DF4F4881C75BD040AC
S1130680141415041CF0432D01C0432D9701ADEC47
S1130690BCEC0E94710796958795969587959695DB
S11306A087959C01220F331F880F991F880F991F6C
S11306B0880F991F820F931F602FAE2DA81B8A2FBE
S11306C00E94E900F60182936F019701ADECBCEC46
S11306D00E9471077C01F694E794F694E794F694EB
S11306E0E7940150110920F62FC0E1EBF0E0EC0F84
S11306F0FD1FE10FF11D80810E94A4008FED9EE299
S11307000197F1F700C000001F5F143009F4132DA6
S113071086B5833D50F316BC80916001823339F471
S11307202092600193E08916910439F40AC0809103
S113073060018F5F80936001D8CFAFEF8A1A9A0A65
S11307405CCF812C912C59CFCF54DF4F8881C15B72
S1130750D0400E94A400EFEDFEE23197F1F700C013
S1130760000011E0D5CF5058BB27AA270E94CB0325
S11307700C9445050E94370538F00E943E0520F090
S113078039F49F3F19F426F40C9434050EF4E095E3
S1130790E7FB0C942E05E92F0E94560558F3BA176F
S11307A0620773078407950720F079F4A6F50C9483
S11307B078050EF4E0950B2EBA2FA02D0B01B9018C
S11307C090010C01CA01A0011124FF27591B99F0C3
S11307D0593F50F4503E68F11A16F040A22F232FCF
S11307E0342F4427585FF3CF469537952795A7951F
S11307F0F0405395C9F77EF41F16BA0B620B730BC6
S1130800840BBAF09150A1F0FF0FBB1F661F771F36
S1130810881FC2F70EC0BA0F621F731F841F48F4EB
S1130820879577956795B795F7959E3F08F0B0CF74
S11308309395880F08F09927EE0F9795879508955B
S11308400E940A0508F481E008950E9439040C947A
S113085045050E943E0558F00E94370540F029F4F2
S11308605F3F29F00C942E0551110C9479050C94DA
S113087034050E94560568F39923B1F3552391F387
S1130880951B550BBB27AA2762177307840738F0FB
S11308909F5F5F4F220F331F441FAA1FA9F335D058
S11308A00E2E3AF0E0E832D091505040E695001C0C
S11308B0CAF72BD0FE2F29D0660F771F881FBB1FC6
S11308C0261737074807AB07B0E809F0BB0B802DA4
S11308D0BF01FF2793585F4F3AF09E3F510578F0D0
S11308E00C942E050C9479055F3FE4F3983ED4F301
S11308F0869577956795B795F7959F5FC9F7880FA4
S1130900911D9695879597F90895E1E0660F771FF5
S1130910881FBB1F621773078407BA0720F0621B86
S1130920730B840BBA0BEE1F88F7E09508950E94B1
S11309309E046894B1110C94790508950E945E0593
S113094088F09F5798F0B92F9927B751B0F0E1F08C
S1130950660F771F881F991F1AF0BA95C9F714C03C
S1130960B13091F00E947805B1E008950C947805B7
S1130970672F782F8827B85F39F0B93FCCF3869575
S113098077956795B395D9F73EF4909580957095D2
S113099061957F4F8F4F9F4F0895E89409C097FB4F
S11309A03EF490958095709561957F4F8F4F9F4F42
S11309B09923A9F0F92F96E9BB279395F695879586
S11309C077956795B795F111F8CFFAF4BB0F11F449
S11309D060FF1BC06F5F7F4F8F4F9F4F16C08823F0
S11309E011F096E911C0772321F09EE8872F762F26
S11309F005C0662371F096E8862F70E060E02AF067
S1130A009A95660F771F881FDAF7880F9695879552
S1130A1097F90895990F0008550FAA0BE0E8FEEF27
S1130A2016161706E807F907C0F012161306E407AE
S1130A30F50798F0621B730B840B950B39F40A26A7
S1130A4061F0232B242B252B21F408950A2609F485
S1130A50A140A6958FEF811D811D089597F99F6789
S1130A6080E870E060E008959FEF80EC0895002432
S1130A700A941616170618060906089500240A94FF
S1130A8012161306140605060895092E0394000C85
S1130A9011F4882352F0BB0F40F4BF2B11F460FF14
S1130AA004C06F5F7F4F8F4F9F4F089557FD90583D
S1130AB0440F551F59F05F3F71F04795880F97FB1E
S1130AC0991F61F09F3F79F08795089512161306D8
S1130AD01406551FF2CF4695F1DF08C01616170607
S1130AE01806991FF1CF869571056105089408953C
S1130AF0E894BB2766277727CB0197F908950E94CE
S1130B0092050C9445050E94370538F00E943E0575
S1130B1020F0952311F00C942E050C943405112427
S1130B200C9479050E94560570F3959FC1F3950FB7
S1130B3050E0551F629FF001729FBB27F00DB11D5D
S1130B40639FAA27F00DB11DAA1F649F6627B00DED
S1130B50A11D661F829F2227B00DA11D621F739FD6
S1130B60B00DA11D621F839FA00D611D221F749FE4
S1130B703327A00D611D231F849F600D211D822F2B
S1130B80762F6A2F11249F5750409AF0F1F0882352
S1130B904AF0EE0FFF1FBB1F661F771F881F91507F
S1130BA05040A9F79E3F510580F00C942E050C94FB
S1130BB079055F3FE4F3983ED4F38695779567957E
S1130BC0B795F795E7959F5FC1F7FE2B880F911DA9
S1130BD09695879597F90895FA01EE0FFF1F3096C1
S1130BE021053105A1F16115710561F48038BFE378
S1130BF09B0749F168949038810561F08038BFEF14
S1130C009B0741F099234AF5FF3FE1053105210592
S1130C1019F1E8940894E795D901AA2329F4AB2F94
S1130C20BE2FF85FD0F310C0FF5F70F4A695E0F715
S1130C30F73950F019F0FF3A38F49F779F930DD0AD
S1130C400F9007FC9058089546F00C94340560E02A
S1130C5070E080E89FE308954FE79F775F934F9399
S1130C603F932F930E94E7062F913F914F915F91FD
S1130C700E947F050C94440629F416F00C942E056A
S1130C800C9478050C9434050E945E05A8F39638FC
S1130C90A0F707F80F92E8942BE33AEA48EB5FE7F2
S1130CA00E9495050F920F920F924DB75EB70F9267
S1130CB00E942F07E8E6F0E00E9476064F915F91CC
S1130CC0EF91FF91E595EE1FFF1F49F0FE57E06895
S1130CD04427EE0F441FFA95E1F74195550B0E9406
S1130CE0A9060F9007FE0C949D060895DF93CF93F9
S1130CF01F930F93FF92EF92DF927B018C01689414
S1130D0006C0DA2EEF010E949205FE01E894A59137
S1130D102591359145915591A6F3EF010E94CB039E
S1130D20FE019701A801DA9469F7DF90EF90FF9034
S1130D300F911F91CF91DF9108959B01AC0160E069
S1130D4070E080E89FE30C9425040C942E050C9429
S1130D5063070E945E05D8F39923C9F3940F511DCC
S1130D60A3F39150504094F059F0882332F0660F69
S1130D70771F881F91505040C1F79E3F51052CF7B3
S1130D80880F911D9695879597F908955F3FACF06C
S1130D90983E9CF0BB27869577956795B79508F4A0
S1130DA0B1609395C1F7BB0F58F711F460FFE8CF1A
S1130DB06F5F7F4F8F4F9F4FE3CF0C94790516F0F1
S1130DC00C9463070C94340568940C942E050E94CB
S1130DD05E05A8F39923C1F3AEF3DF93CF931F937A
S1130DE00F93FF92C92FDD2788232AF02197660FDE
S1130DF0771F881FDAF720E030E040E85FEB9FE3DD
S1130E00883920F0803E38F021968F770E94B40311
S1130E10E0E9F0E004C00E94B403EDEBF0E00E94CE
S1130E2076068B01BE01EC01FB2E6F577109759597
S1130E30771F880B990B0E94CF0428E132E741E326
S1130E405FE30E949205AF2D9801AE01FF900F91D0
S1130E501F91CF91DF910E94CB030C944505FA01B9
S1130E60DC01AA0FBB1F9B01AC01BF5728F422274A
S1130E7033274427507820C0B75190F4AB2F002477
S1130E80469537952795011CA395D2F3002071F060
S1130E90220F331F441FB395DAF30ED00C94B3031F
S1130EA061307105A0E88A07B94630F49B01AC01B2
S1130EB06627772788279078309621F0208331831E
S1130EC04283538308959F3F31F0915020F48795D6
S1130ED077956795B795880F911D9695879597F99E
S1130EE00895A29FB001B39FC001A39F700D811DFF
S1130EF01124911DB29F700D811D1124911D08951F
S1070F00F894FFCF8F
S1130F043333D33F85EB0140EC5118409A9929407F
S1130F140AD7334066663640D7A330403333234080
S1130F240000104085EBF13F0000C03F295C8F3F77
S1130F34295C4F3FCFF7133F1F85EB3ED7A3F03E09
S1130F44F6281C3F23DB593F3333933F14AEC73F8A
S1130F5400409A4400609A4400809A4400A09A4451
S9030000FC
