:100000000C9475000C9487000C9487000C94870066
:100010000C9487000C9487000C9487000C94870044
:100020000C9487000C9487000C9487000C94870034
:100030000C9487000C9487000C9487000C94870024
:100040000C9487000C9487000C9487000C94870014
:100050000C9487000C9487000C9487000C94870004
:100060000C9487000C94870007634236B79BD8A78F
:100070001A39685618AEBAAB558C1D3CB7CC5763CD
:10008000BD6DEDFD753EF6177231BF000000803F7B
:1000900008000000BE922449123EABAAAA2ABECD97
:1000A000CCCC4C3E00000080BEABAAAAAA3E000009
:1000B0000000BF000000803F000000000008417801
:1000C000D3BB4387D1133D190E3CC3BD4282AD2B38
:1000D0003E68EC8276BED98FE1A93E4C80EFFFBE30
:1000E00001C4FF7F3F000000000011241FBECFEFBE
:1000F000D8E0DEBFCDBF21E0A0E0B1E001C01D929D
:10010000A130B207E1F70E947F010C945B060C94CA
:1001100000001092C50087E68093C400E1ECF0E097
:10012000808188608083E2ECF0E08081866080835B
:100130000895E0ECF0E090819923E9F38093C60004
:10014000089585B5856085BD16BC0895CF92DF9270
:10015000EF92FF926B017C0120E030E040E251E43D
:100160000E94BC02882304F120E030E048EC52E415
:10017000C701B6010E94BC028823CCF020E030E029
:100180004AE754E4C701B6010E94BC02082E000CE5
:10019000990B8827990F881F992723E030E0A90140
:1001A000481B590BCA0105C080E090E002C081E005
:1001B00090E0FF90EF90DF90CF90089590E0413075
:1001C00009F44096611103C0805A9F4F0895613031
:1001D00019F4805C9F4F0895623009F48096089569
:1001E00017B8EAE7F0E0808187688083ECE7F0E009
:1001F0008081806480830895DC01ECE7F0E09081E9
:100200009D7F9083EAE7F0E09081906490839081F5
:1002100094FFFDCF80917800909179008D939C930D
:10022000ECE7F0E0808182608083EAE7F0E08081A3
:1002300080648083808184FFFDCF809178009091DD
:100240007900FB01918380830895BC0180E090E0F8
:100250000E94690320E030EC4FE754E40E94C102A1
:1002600020E030E040EA50E40E941B04089561154C
:100270007105B1F4BC0180E090E00E9469032AE9B5
:1002800039E949ED5FE30E944F02905820E030E0E9
:1002900044EC52E40E941B040E943303CB010895F6
:1002A00061307105B1F4BC0180E090E00E94690307
:1002B00027ED33EA40ED5FE30E944F02905826E6B7
:1002C00036E646EB50E40E94C1020E943303CB01A4
:1002D0000895BC0180E090E00E94690325E83BEEB0
:1002E00041ED5FE30E944F02905822E538EB43E076
:1002F00052E40E94C1020E943303CB010895CF93C0
:10030000DF93CDB7DEB728970FB6F894DEBF0FBEE8
:10031000CDBF0E94F0000E9489000E94A1000F2E14
:10032000F3E08F2E912CF02D312C44244394532C48
:10033000242CBE016B5F7F4FCE0107960E94FC000C
:1003400060E070E08F8198850E94370160E070E086
:100350008D819E810E9437018F8198850E942501A1
:1003600020E030E04AE754E40E941B040E94D804D5
:1003700020E030E04AE754E40E94C1026B017C01B6
:100380000E94A6005C01BB2434016A187B08B301FB
:10039000072C000C880B990B0E946B039B01AC018E
:1003A00060E070E080E291E40E948804A701960179
:1003B0000E941B0420E030E040E05FE30E94500216
:1003C0000E9433037B01CE0105966C0184010A155E
:1003D0001B0531F4422D161417041CF0452D01C0E5
:1003E000452D9701ADECBCEC0E944C069695879587
:1003F00096958795969587959C01220F331F880FB8
:10040000991F880F991F880F991F820F931F602FC4
:10041000EE2DE81B8E2F0E94DE00F60182936F0105
:100420009701ADECBCEC0E944C067C01F694E7947D
:10043000F694E794F694E7940150110940F624C02D
:10044000E1E0F0E0EC0FFD1FE10FF11D80810E9463
:1004500099008FED9EE20197F1F700C000001F5F49
:10046000143009F4152D86B58C3950F316BC8091E3
:100470000001823319F4309200015BCF80910001BA
:100480008F5F80930001DCCF89810E949900EFED9E
:10049000FEE23197F1F700C00000142DE4CF505870
:1004A000BB27AA270E9467020C94E1030E94D30392
:1004B00038F00E94DA0320F039F49F3F19F426F453
:1004C0000C94D0030EF4E095E7FB0C94CA03E92FDB
:1004D0000E94F20358F3BA1762077307840795075F
:1004E00020F079F4A6F50C9414040EF4E0950B2E8C
:1004F000BA2FA02D0B01B90190010C01CA01A00176
:100500001124FF27591B99F0593F50F4503E68F1D0
:100510001A16F040A22F232F342F4427585FF3CF11
:10052000469537952795A795F0405395C9F77EF4E2
:100530001F16BA0B620B730B840BBAF09150A1F02B
:10054000FF0FBB1F661F771F881FC2F70EC0BA0FB1
:10055000621F731F841F48F4879577956795B79539
:10056000F7959E3F08F0B0CF9395880F08F0992734
:10057000EE0F9795879508950E94A60308F481E0F1
:1005800008950E94D5020C94E1030E94DA0358F00A
:100590000E94D30340F029F45F3F29F00C94CA0372
:1005A00051110C9415040C94D0030E94F20368F3CB
:1005B0009923B1F3552391F3951B550BBB27AA271C
:1005C00062177307840738F09F5F5F4F220F331F56
:1005D000441FAA1FA9F335D00E2E3AF0E0E832D01E
:1005E00091505040E695001CCAF72BD0FE2F29D021
:1005F000660F771F881FBB1F261737074807AB07F3
:10060000B0E809F0BB0B802DBF01FF2793585F4F67
:100610003AF09E3F510578F00C94CA030C941504EF
:100620005F3FE4F3983ED4F3869577956795B79549
:10063000F7959F5FC9F7880F911D9695879597F954
:100640000895E1E0660F771F881FBB1F62177307CD
:100650008407BA0720F0621B730B840BBA0BEE1FE2
:1006600088F7E09508950E943A036894B1110C94BC
:10067000150408950E94FA0388F09F5798F0B92F47
:100680009927B751B0F0E1F0660F771F881F991FC7
:100690001AF0BA95C9F714C0B13091F00E94140451
:1006A000B1E008950C941404672F782F8827B85F61
:1006B00039F0B93FCCF3869577956795B395D9F71F
:1006C0003EF490958095709561957F4F8F4F9F4F29
:1006D0000895E89409C097FB3EF490958095709535
:1006E00061957F4F8F4F9F4F9923A9F0F92F96E97E
:1006F000BB279395F695879577956795B795F111F3
:10070000F8CFFAF4BB0F11F460FF1BC06F5F7F4F8F
:100710008F4F9F4F16C0882311F096E911C07723A1
:1007200021F09EE8872F762F05C0662371F096E8AA
:10073000862F70E060E02AF09A95660F771F881F79
:10074000DAF7880F9695879597F90895990F00081D
:10075000550FAA0BE0E8FEEF16161706E807F90793
:10076000C0F012161306E407F50798F0621B730B2E
:10077000840B950B39F40A2661F0232B242B252BAF
:1007800021F408950A2609F4A140A6958FEF811D52
:10079000811D089597F99F6780E870E060E00895F3
:1007A0009FEF80EC089500240A9416161706180689
:1007B0000906089500240A94121613061406050665
:1007C0000895092E0394000C11F4882352F0BB0FF6
:1007D00040F4BF2B11F460FF04C06F5F7F4F8F4F59
:1007E0009F4F089557FD9058440F551F59F05F3F94
:1007F00071F04795880F97FB991F61F09F3F79F043
:1008000087950895121613061406551FF2CF4695C4
:10081000F1DF08C0161617061806991FF1CF869546
:100820007105610508940895E894BB27662777272A
:10083000CB0197F908950E942E040C94E1030E94C5
:10084000D30338F00E94DA0320F0952311F00C94C2
:10085000CA030C94D00311240C9415040E94F203D3
:1008600070F3959FC1F3950F50E0551F629FF00103
:10087000729FBB27F00DB11D639FAA27F00DB11D1C
:10088000AA1F649F6627B00DA11D661F829F2227A5
:10089000B00DA11D621F739FB00DA11D621F839F2C
:1008A000A00D611D221F749F3327A00D611D231F02
:1008B000849F600D211D822F762F6A2F11249F5750
:1008C00050409AF0F1F088234AF0EE0FFF1FBB1F53
:1008D000661F771F881F91505040A9F79E3F510512
:1008E00080F00C94CA030C9415045F3FE4F3983E27
:1008F000D4F3869577956795B795F795E7959F5FBC
:10090000C1F7FE2B880F911D9695879597F908954D
:10091000FA01EE0FFF1F309621053105A1F1611597
:10092000710561F48038BFE39B0749F16894903802
:10093000810561F08038BFEF9B0741F099234AF5AC
:10094000FF3FE1053105210519F1E8940894E79589
:10095000D901AA2329F4AB2FBE2FF85FD0F310C022
:10096000FF5F70F4A695E0F7F73950F019F0FF3A01
:1009700038F49F779F930DD00F9007FC90580895FF
:1009800046F00C94D00360E070E080E89FE30895A7
:100990004FE79F775F934F933F932F930E94D0052C
:1009A0002F913F914F915F910E941B040C9404057D
:1009B0000E94FA03E8F09E37E8F09639B8F49E38C2
:1009C00048F4672F782F8827985FF9CF8695779519
:1009D000679593959539D0F3B62FB1706B0F711D54
:1009E000811D20F487957795679593950C9436052E
:1009F0000C9451050C94150429F416F00C94CA03B8
:100A00000C9414040C94D0030E94FA03A8F39638B3
:100A1000A0F707F80F92E8942BE33AEA48EB5FE778
:100A20000E9431040F920F920F924DB75EB70F9252
:100A30000E941806E8E6F0E00E945F054F915F9182
:100A4000EF91FF91E595EE1FFF1F49F0FE57E0681B
:100A50004427EE0F441FFA95E1F74195550B0E948C
:100A600092050F9007FE0C9486050895882371F473
:100A7000772321F09850872B762F07C0662311F437
:100A800099270DC09051862B70E060E02AF09A956E
:100A9000660F771F881FDAF7880F9695879597F965
:100AA00008959F3F31F0915020F487957795679591
:100AB000B795880F911D9695879597F90895DF93BF
:100AC000CF931F930F93FF92EF92DF927B018C01E4
:100AD000689406C0DA2EEF010E942E04FE01E8940D
:100AE000A5912591359145915591A6F3EF010E946D
:100AF0006702FE019701A801DA9469F7DF90EF9091
:100B0000FF900F911F91CF91DF9108959B01AC0150
:100B100060E070E080E89FE30C94C1020C94CA038B
:100B20000C9451050E94FA03D8F39923C9F3940F4A
:100B3000511DA3F39150504094F059F0882332F0A6
:100B4000660F771F881F91505040C1F79E3F510597
:100B50002CF7880F911D9695879597F908955F3F1B
:100B6000ACF0983E9CF0BB27869577956795B79536
:100B700008F4B1609395C1F7BB0F58F711F460FF0B
:100B8000E8CF6F5F7F4F8F4F9F4FE3CF0C941504DB
:100B900016F00C9451050C94D00368940C94CA037D
:100BA0000E94FA03A8F39923C1F3AEF3DF93CF9326
:100BB0001F930F93FF92C92FDD2788232AF02197D7
:100BC000660F771F881FDAF720E030E040E85FEB20
:100BD0009FE3883920F0803E38F021968F770E947D
:100BE0005002E0E9F0E004C00E945002EDEBF0E0BA
:100BF0000E945F058B01BE01EC01FB2E6F5771094E
:100C00007595771F880B990B0E946B0328E132E7DB
:100C100041E35FE30E942E04AF2D9801AE01FF90E7
:100C20000F911F91CF91DF910E9467020C94E10315
:100C3000FA01DC01AA0FBB1F9B01AC01BF5728F4CE
:100C4000222733274427507820C0B75190F4AB2F88
:100C50000024469537952795011CA395D2F30020D3
:100C600071F0220F331F441FB395DAF30ED00C94AA
:100C70004F0261307105A0E88A07B94630F49B0144
:100C8000AC016627772788279078309621F020835B
:100C90003183428353830895A29FB001B39FC00163
:100CA000A39F700D811D1124911DB29F700D811D98
:0A0CB0001124911D0895F894FFCF60
:00000001FF
