:100000000C9475000C9487000C9487000C94870066
:100010000C9487000C9487000C9487000C94870044
:100020000C9487000C9487000C9487000C94870034
:100030000C9487000C9487000C9487000C94870024
:100040000C9487000C9487000C9487000C94870014
:100050000C9487000C9487000C9487000C94870004
:100060000C9487000C94870007634236B79BD8A78F
:100070001A39685618AEBAAB558C1D3CB7CC5763CD
:10008000BD6DEDFD753EF6177231BF000000803F7B
:1000900008000000BE922449123EABAAAA2ABECD97
:1000A000CCCC4C3E00000080BEABAAAAAA3E000009
:1000B0000000BF000000803F000000000008417801
:1000C000D3BB4387D1133D190E3CC3BD4282AD2B38
:1000D0003E68EC8276BED98FE1A93E4C80EFFFBE30
:1000E00001C4FF7F3F000000000011241FBECFEFBE
:1000F000D8E0DEBFCDBF21E0A0E0B1E001C01D929D
:10010000A130B207E1F70E9421010C94F3050C9491
:1001100000001092C50087E68093C400E1ECF0E097
:10012000808188608083E2ECF0E08081866080835B
:100130000895E0ECF0E090819923E9F38093C60004
:10014000089585B5856085BD16BC0895CF92DF9270
:10015000EF92FF926B017C0120E030E040E251E43D
:100160000E945402882304F120E030E048EC52E47D
:10017000C701B6010E9454028823CCF020E030E091
:100180004AE754E4C701B6010E945402082E000C4D
:10019000990B8827990F881F992723E030E0A90140
:1001A000481B590BCA0105C080E090E002C081E005
:1001B00090E0FF90EF90DF90CF90089590E0413075
:1001C00009F44096611103C0805A9F4F0895613031
:1001D00019F4805C9F4F0895623009F48096089569
:1001E00017B8EAE7F0E08081876880830895EAE73E
:1001F000F0E0808180648083808184FFFDCF8091E6
:1002000078009091790008959C0136952795369550
:10021000279536952795A5ECB0E20E94E4059295C6
:1002200082958F7089279F708927BC0180E090E0BC
:100230000E94010323E333E343E550E40E94B30348
:100240000895CF93DF9300D000D01F92CDB7DEB7D3
:100250000E94F0000E9489000E94A100612C712C74
:100260000F2EF3E08F2E912CF02D212C322C21E03B
:100270002D830E94F7000E94040120E030E04AE74D
:1002800054E40E94B3030E94700420E030E04AE787
:1002900054E40E9459026B017C010E94A6005C019B
:1002A000BB2424014A185B08B201052C000C880B02
:1002B000990B0E9403039B01AC0160E070E080E2B7
:1002C00091E40E942004A70196010E94B30320E05C
:1002D00030E040E05FE30E94E8010E94CB027B0136
:1002E000CE0105966C0184010A151B0531F44D8180
:1002F000141415041CF0432D01C0432D9701ADECDF
:10030000BCEC0E94E4059695879596958795969501
:1003100087959C01220F331F880F991F880F991F03
:10032000880F991F820F931F602FEE2DE81B8E2FD1
:100330000E94DE00F60182936F019701ADECBCECE8
:100340000E94E4057C01F694E794F694E794F69411
:10035000E7940150110940F62FC0E1E0F0E0EC0F06
:10036000FD1FE10FF11D80810E9499008FED9EE23B
:100370000197F1F700C000001F5F143009F4132D3E
:1003800086B5833D50F316BC80910001823339F469
:100390002092000193E06916710439F40AC080913B
:1003A00000018F5F80930001D8CFEFEF6E1A7E0AB5
:1003B00060CF612C712C5DCF89810E9499008FEDF7
:1003C0009EE20197F1F700C0000011E0D9CF50582C
:1003D000BB27AA270E94FF010C9479030E946B039C
:1003E00038F00E94720320F039F49F3F19F426F48C
:1003F0000C9468030EF4E095E7FB0C946203E92F7C
:100400000E948A0358F3BA17620773078407950797
:1004100020F079F4A6F50C94AC030EF4E0950B2EC5
:10042000BA2FA02D0B01B90190010C01CA01A00146
:100430001124FF27591B99F0593F50F4503E68F1A1
:100440001A16F040A22F232F342F4427585FF3CFE2
:10045000469537952795A795F0405395C9F77EF4B3
:100460001F16BA0B620B730B840BBAF09150A1F0FC
:10047000FF0FBB1F661F771F881FC2F70EC0BA0F82
:10048000621F731F841F48F4879577956795B7950A
:10049000F7959E3F08F0B0CF9395880F08F0992705
:1004A000EE0F9795879508950E943E0308F481E02A
:1004B00008950E946D020C9479030E94720358F013
:1004C0000E946B0340F029F45F3F29F00C94620313
:1004D00051110C94AD030C9468030E948A0368F3D5
:1004E0009923B1F3552391F3951B550BBB27AA27ED
:1004F00062177307840738F09F5F5F4F220F331F27
:10050000441FAA1FA9F335D00E2E3AF0E0E832D0EE
:1005100091505040E695001CCAF72BD0FE2F29D0F1
:10052000660F771F881FBB1F261737074807AB07C3
:10053000B0E809F0BB0B802DBF01FF2793585F4F38
:100540003AF09E3F510578F00C9462030C94AD0391
:100550005F3FE4F3983ED4F3869577956795B7951A
:10056000F7959F5FC9F7880F911D9695879597F925
:100570000895E1E0660F771F881FBB1F621773079E
:100580008407BA0720F0621B730B840BBA0BEE1FB3
:1005900088F7E09508950E94D2026894B1110C94F6
:1005A000AD0308950E94920388F09F5798F0B92FE9
:1005B0009927B751B0F0E1F0660F771F881F991F98
:1005C0001AF0BA95C9F714C0B13091F00E94AC038B
:1005D000B1E008950C94AC03672F782F8827B85F9B
:1005E00039F0B93FCCF3869577956795B395D9F7F0
:1005F0003EF490958095709561957F4F8F4F9F4FFA
:100600000895E89409C097FB3EF490958095709505
:1006100061957F4F8F4F9F4F9923A9F0F92F96E94E
:10062000BB279395F695879577956795B795F111C3
:10063000F8CFFAF4BB0F11F460FF1BC06F5F7F4F60
:100640008F4F9F4F16C0882311F096E911C0772372
:1006500021F09EE8872F762F05C0662371F096E87B
:10066000862F70E060E02AF09A95660F771F881F4A
:10067000DAF7880F9695879597F90895990F0008EE
:10068000550FAA0BE0E8FEEF16161706E807F90764
:10069000C0F012161306E407F50798F0621B730BFF
:1006A000840B950B39F40A2661F0232B242B252B80
:1006B00021F408950A2609F4A140A6958FEF811D23
:1006C000811D089597F99F6780E870E060E00895C4
:1006D0009FEF80EC089500240A941616170618065A
:1006E0000906089500240A94121613061406050636
:1006F0000895092E0394000C11F4882352F0BB0FC7
:1007000040F4BF2B11F460FF04C06F5F7F4F8F4F29
:100710009F4F089557FD9058440F551F59F05F3F64
:1007200071F04795880F97FB991F61F09F3F79F013
:1007300087950895121613061406551FF2CF469595
:10074000F1DF08C0161617061806991FF1CF869517
:100750007105610508940895E894BB2766277727FB
:10076000CB0197F908950E94C6030C9479030E9467
:100770006B0338F00E94720320F0952311F00C9463
:1007800062030C94680311240C94AD030E948A0345
:1007900070F3959FC1F3950F50E0551F629FF001D4
:1007A000729FBB27F00DB11D639FAA27F00DB11DED
:1007B000AA1F649F6627B00DA11D661F829F222776
:1007C000B00DA11D621F739FB00DA11D621F839FFD
:1007D000A00D611D221F749F3327A00D611D231FD3
:1007E000849F600D211D822F762F6A2F11249F5721
:1007F00050409AF0F1F088234AF0EE0FFF1FBB1F24
:10080000661F771F881F91505040A9F79E3F5105E2
:1008100080F00C9462030C94AD035F3FE4F3983EC8
:10082000D4F3869577956795B795F795E7959F5F8C
:10083000C1F7FE2B880F911D9695879597F908951E
:10084000FA01EE0FFF1F309621053105A1F1611568
:10085000710561F48038BFE39B0749F168949038D3
:10086000810561F08038BFEF9B0741F099234AF57D
:10087000FF3FE1053105210519F1E8940894E7955A
:10088000D901AA2329F4AB2FBE2FF85FD0F310C0F3
:10089000FF5F70F4A695E0F7F73950F019F0FF3AD2
:1008A00038F49F779F930DD00F9007FC90580895D0
:1008B00046F00C94680360E070E080E89FE30895E0
:1008C0004FE79F775F934F933F932F930E94680565
:1008D0002F913F914F915F910E94B3030C949C0420
:1008E0000E949203E8F09E37E8F09639B8F49E38FB
:1008F00048F4672F782F8827985FF9CF86957795EA
:10090000679593959539D0F3B62FB1706B0F711D24
:10091000811D20F487957795679593950C94CE0467
:100920000C94E9040C94AD0329F416F00C946203C2
:100930000C94AC030C9468030E949203A8F39638BD
:10094000A0F707F80F92E8942BE33AEA48EB5FE749
:100950000E94C9030F920F920F924DB75EB70F928C
:100960000E94B005E8E6F0E00E94F7044F915F9125
:10097000EF91FF91E595EE1FFF1F49F0FE57E068EC
:100980004427EE0F441FFA95E1F74195550B0E945D
:100990002A050F9007FE0C941E050895882371F414
:1009A000772321F09850872B762F07C0662311F408
:1009B00099270DC09051862B70E060E02AF09A953F
:1009C000660F771F881FDAF7880F9695879597F936
:1009D00008959F3F31F0915020F487957795679562
:1009E000B795880F911D9695879597F90895DF9390
:1009F000CF931F930F93FF92EF92DF927B018C01B5
:100A0000689406C0DA2EEF010E94C603FE01E89446
:100A1000A5912591359145915591A6F3EF010E943D
:100A2000FF01FE019701A801DA9469F7DF90EF90CA
:100A3000FF900F911F91CF91DF9108959B01AC0121
:100A400060E070E080E89FE30C9459020C9462032C
:100A50000C94E9040E949203D8F39923C9F3940FEC
:100A6000511DA3F39150504094F059F0882332F077
:100A7000660F771F881F91505040C1F79E3F510568
:100A80002CF7880F911D9695879597F908955F3FEC
:100A9000ACF0983E9CF0BB27869577956795B79507
:100AA00008F4B1609395C1F7BB0F58F711F460FFDC
:100AB000E8CF6F5F7F4F8F4F9F4FE3CF0C94AD0315
:100AC00016F00C94E9040C94680368940C94620387
:100AD0000E949203A8F39923C1F3AEF3DF93CF935F
:100AE0001F930F93FF92C92FDD2788232AF02197A8
:100AF000660F771F881FDAF720E030E040E85FEBF1
:100B00009FE3883920F0803E38F021968F770E944D
:100B1000E801E0E9F0E004C00E94E801EDEBF0E05C
:100B20000E94F7048B01BE01EC01FB2E6F57710987
:100B30007595771F880B990B0E94030328E132E714
:100B400041E35FE30E94C603AF2D9801AE01FF9021
:100B50000F911F91CF91DF910E94FF010C947903B7
:100B6000FA01DC01AA0FBB1F9B01AC01BF5728F49F
:100B7000222733274427507820C0B75190F4AB2F59
:100B80000024469537952795011CA395D2F30020A4
:100B900071F0220F331F441FB395DAF30ED00C947B
:100BA000E70161307105A0E88A07B94630F49B017E
:100BB000AC016627772788279078309621F020832C
:100BC0003183428353830895A29FB001B39FC00134
:100BD000A39F700D811D1124911DB29F700D811D69
:0A0BE0001124911D0895F894FFCF31
:00000001FF
