S00F000067726F757033372E737265637E
S11300000C9434000C943E000C943E000C943E007E
S11300100C943E000C943E000C943E000C943E0064
S11300200C943E000C943E000C943E000C943E0054
S11300300C943E000C943E000C943E000C943E0044
S11300400C943E000C943E000C943E000C943E0034
S11300500C943E000C943E000C943E000C943E0024
S11300600C943E000C943E0011241FBECFEFD8E048
S1130070DEBFCDBF0E946A000C94C8000C9400003F
S11300801092C50087E68093C400E1ECF0E0808123
S113009088608083E2ECF0E080818660808308954C
S11300A0E0ECF0E090819923E9F38093C600089591
S11300B090E0413009F44096611103C0805A9F4F8B
S11300C00895613019F4805C9F4F0895623009F4FB
S11300D0809608950E944000D3E089E39BE10AE002
S11300E010E0B8010E94A000F62EC72F40E06D2F4B
S11300F00E9458008F2D9C2FD15098F712C040E0D9
S113010060E084E00E9458000E9450008FED9EE25F
S11301100197F1F700C00000CF5FC43081F7C0E061
S1130120EECF40E060E084E00E9458000E9450005E
S11301308FED9EE20197F1F700C00000C1E0DFCF30
S113014097FB072E16F4009407D077FD09D00E9480
S1130150B40007FC05D03EF4909581959F4F089517
S1130160709561957F4F0895AA1BBB1B51E107C091
S1130170AA1FBB1FA617B70710F0A61BB70B881F33
S1130180991F5A95A9F780959095BC01CD010895C2
S1070190F894FFCF0D
S9030000FC
