:100000000C9434000C943E000C943E000C943E0082
:100010000C943E000C943E000C943E000C943E0068
:100020000C943E000C943E000C943E000C943E0058
:100030000C943E000C943E000C943E000C943E0048
:100040000C943E000C943E000C943E000C943E0038
:100050000C943E000C943E000C943E000C943E0028
:100060000C943E000C943E0011241FBECFEFD8E04C
:10007000DEBFCDBF0E946A000C94D7000C94000034
:100080001092C50087E68093C400E1ECF0E0808127
:1000900088608083E2ECF0E0808186608083089550
:1000A000E0ECF0E090819923E9F38093C600089595
:1000B00090E0413009F44096611103C0805A9F4F8F
:1000C0000895613019F4805C9F4F0895623009F4FF
:1000D00080960895CF93DF9300D000D0CDB7DEB7E0
:1000E0000E9440006E0185E0C80ED11C13E089E338
:1000F0009BE10F2EFAE0AF2EB12CF02DB5010E943E
:10010000AF00062FF72E40E0612F0E945800F60145
:1001100082936F01802F9F2D115080F714C0E1E072
:10012000F0E0EC0FFD1FE10FF11D80810E945000F7
:100130008FED9EE20197F1F700C000001F5F1430C1
:1001400071F7102FECCF89810E945000EFEDFEE295
:100150003197F1F700C0000011E000E0E0CF97FB1D
:10016000072E16F4009407D077FD09D00E94C30033
:1001700007FC05D03EF4909581959F4F08957095AA
:1001800061957F4F0895AA1BBB1B51E107C0AA1FB1
:10019000BB1FA617B70710F0A61BB70B881F991F28
:1001A0005A95A9F780959095BC01CD010895F894D2
:0201B000FFCF7F
:00000001FF
