:100000000C9475000C9492000C9492000C94920045
:100010000C9492000C9492000C9492000C94920018
:100020000C9492000C9492000C9492000C94920008
:100030000C9492000C9492000C9492000C949200F8
:100040000C9492000C9492000C9492000C949200E8
:100050000C9492000C9492000C9492000C949200D8
:100060000C9492000C94920007634236B79BD8A779
:100070001A39685618AEBAAB558C1D3CB7CC5763CD
:10008000BD6DEDFD753EF6177231BF000000803F7B
:1000900008000000BE922449123EABAAAA2ABECD97
:1000A000CCCC4C3E00000080BEABAAAAAA3E000009
:1000B0000000BF000000803F000000000008417801
:1000C000D3BB4387D1133D190E3CC3BD4282AD2B38
:1000D0003E68EC8276BED98FE1A93E4C80EFFFBE30
:1000E00001C4FF7F3F000000000011241FBECFEFBE
:1000F000D8E0DEBFCDBF11E0A0E0B1E0EEE2FBE072
:1001000002C005900D92A031B107D9F721E0A0E11E
:10011000B1E001C01D92A131B207E1F70E94FB00DE
:100120000C9495050C9400001092C50087E680930E
:10013000C400E1ECF0E0808188608083E2ECF0E0D4
:100140008081866080830895E0ECF0E090819923BF
:10015000E9F38093C600089585B5856085BD16BC1A
:100160000895CF92DF92EF92FF926B017C0120E025
:1001700030E040E251E40E943502882304F120E09F
:1001800030E048EC52E4C701B6010E9435028823F2
:10019000CCF020E030E04AE754E4C701B6010E9409
:1001A0003502082E000C990B8827990F881F992774
:1001B00023E030E0A901481B590BCA0105C080E0CB
:1001C00090E002C081E090E0FF90EF90DF90CF9050
:1001D000089590E0413009F44096611103C0805ABF
:1001E0009F4F0895613019F4805C9F4F08956230ED
:1001F00009F480960895CF93DF93CDB7DEB7659766
:100200000FB6F894DEBF0FBECDBF0E9494000E94CF
:10021000AC0080E1E0E0F1E0DE01119601900D928A
:100220008A95E1F7812C912C0F2EF3E06F2E712C23
:10023000F02D212C322C21E02D8BF401EE0FFF1F2D
:10024000EE0FFF1F81E090E08C0F9D1FE80FF91F5C
:10025000C080D180E280F380C701B6010E94B10066
:100260005C01BB2423014A185B08B201052C000C79
:10027000880B990B0E9472029B01AC0160E070E058
:1002800080E291E40E948F03A70196010E9422035D
:1002900020E030E040E05FE30E94C9010E943A02A2
:1002A0007B01FE0175966F0183010A151B0531F470
:1002B0004D89141415041CF0432D01C0432D9701E2
:1002C000ADECBCEC0E948605969587959695879532
:1002D000969587959C01220F331F880F991F880FD1
:1002E000991F880F991F820F931F602FFE2DF81BF7
:1002F0008F2F0E94E900F60182936F019701ADEC08
:10030000BCEC0E9486057C01F694E794F694E79491
:10031000F694E7940150110940F62FC0E1E1F0E0B6
:10032000EC0FFD1FE10FF11D80810E94A4008FEDF5
:100330009EE20197F1F700C000001F5F143009F43E
:10034000132D86B5833D50F316BC80911001823386
:1003500039F42092100193E08916910439F40AC00F
:10036000809110018F5F80931001D8CFEFEF8E1A2C
:100370009E0A63CF812C912C60CF89890E94A400B2
:100380008FED9EE20197F1F700C0000011E0D9CF98
:100390005058BB27AA270E94E0010C94E8020E9453
:1003A000DA0238F00E94E10220F039F49F3F19F49C
:1003B00026F40C94D7020EF4E095E7FB0C94D102DE
:1003C000E92F0E94F90258F3BA17620773078407EE
:1003D000950720F079F4A6F50C941B030EF4E09534
:1003E0000B2EBA2FA02D0B01B90190010C01CA01EF
:1003F000A0011124FF27591B99F0593F50F4503E9A
:1004000068F11A16F040A22F232F342F4427585F8B
:10041000F3CF469537952795A795F0405395C9F7A3
:100420007EF41F16BA0B620B730B840BBAF091505B
:10043000A1F0FF0FBB1F661F771F881FC2F70EC0FA
:10044000BA0F621F731F841F48F4879577956795CD
:10045000B795F7959E3F08F0B0CF9395880F08F0B9
:100460009927EE0F9795879508950E94AD0208F49D
:1004700081E008950E9441026894B1110C941C031C
:1004800008950E94010388F09F5798F0B92F99278B
:10049000B751B0F0E1F0660F771F881F991F1AF06F
:1004A000BA95C9F714C0B13091F00E941B03B1E0B6
:1004B00008950C941B03672F782F8827B85F39F0B5
:1004C000B93FCCF3869577956795B395D9F73EF408
:1004D00090958095709561957F4F8F4F9F4F0895B0
:1004E000E89409C097FB3EF49095809570956195CE
:1004F0007F4F8F4F9F4F9923A9F0F92F96E9BB2784
:100500009395F695879577956795B795F111F8CFFF
:10051000FAF4BB0F11F460FF1BC06F5F7F4F8F4F6A
:100520009F4F16C0882311F096E911C0772321F060
:100530009EE8872F762F05C0662371F096E8862FF8
:1005400070E060E02AF09A95660F771F881FDAF74F
:10055000880F9695879597F90895990F0008550F7C
:10056000AA0BE0E8FEEF16161706E807F907C0F039
:1005700012161306E407F50798F0621B730B840B41
:10058000950B39F40A2661F0232B242B252B21F41B
:1005900008950A2609F4A140A6958FEF811D811DBB
:1005A000089597F99F6780E870E060E008959FEFF5
:1005B00080EC089500240A941616170618060906FA
:1005C000089500240A9412161306140605060895C9
:1005D000092E0394000C11F4882352F0BB0F40F451
:1005E000BF2B11F460FF04C06F5F7F4F8F4F9F4F91
:1005F000089557FD9058440F551F59F05F3F71F013
:100600004795880F97FB991F61F09F3F79F0879579
:100610000895121613061406551FF2CF4695F1DF02
:1006200008C0161617061806991FF1CF8695710592
:10063000610508940895E894BB2766277727CB01C6
:1006400097F908950E9435030C94E8020E94DA029B
:1006500038F00E94E10220F0952311F00C94D102B1
:100660000C94D70211240C941C030E94F90270F31D
:10067000959FC1F3950F50E0551F629FF001729F47
:10068000BB27F00DB11D639FAA27F00DB11DAA1F56
:10069000649F6627B00DA11D661F829F2227B00DA3
:1006A000A11D621F739FB00DA11D621F839FA00D2E
:1006B000611D221F749F3327A00D611D231F849F7E
:1006C000600D211D822F762F6A2F11249F575040D5
:1006D0009AF0F1F088234AF0EE0FFF1FBB1F661F50
:1006E000771F881F91505040A9F79E3F510580F019
:1006F0000C94D1020C941C035F3FE4F3983ED4F3B6
:10070000869577956795B795F795E7959F5FC1F7BC
:10071000FE2B880F911D9695879597F90895FA01FC
:10072000EE0FFF1F309621053105A1F1611571050E
:1007300061F48038BFE39B0749F1689490388105E4
:1007400061F08038BFEF9B0741F099234AF5FF3FE6
:10075000E1053105210519F1E8940894E795D901DF
:10076000AA2329F4AB2FBE2FF85FD0F310C0FF5F90
:1007700070F4A695E0F7F73950F019F0FF3A38F425
:100780009F779F930DD00F9007FC9058089546F0E7
:100790000C94D70260E070E080E89FE308954FE793
:1007A0009F775F934F933F932F930E948A042F91DB
:1007B0003F914F915F910E9422030C94E70329F42B
:1007C00016F00C94D1020C941B030C94D7020E94D7
:1007D0000103A8F39638A0F707F80F92E8942BE3EB
:1007E0003AEA48EB5FE70E9438030F920F920F92AC
:1007F0004DB75EB70F920E94D204E8E6F0E00E9487
:1008000019044F915F91EF91FF91E595EE1FFF1F46
:1008100049F0FE57E0684427EE0F441FFA95E1F7D0
:100820004195550B0E944C040F9007FE0C94400418
:100830000895DF93CF931F930F93FF92EF92DF9270
:100840007B018C01689406C0DA2EEF010E9435030B
:10085000FE01E894A5912591359145915591A6F316
:10086000EF010E94E001FE019701A801DA9469F707
:10087000DF90EF90FF900F911F91CF91DF9108953E
:100880009B01AC0160E070E080E89FE30C940605FA
:100890000C94D1020C9478050E940103D8F399239B
:1008A000C9F3940F511DA3F39150504094F059F0A7
:1008B000882332F0660F771F881F91505040C1F790
:1008C0009E3F51052CF7880F911D9695879597F9B6
:1008D00008955F3FACF0983E9CF0BB2786957795D6
:1008E0006795B79508F4B1609395C1F7BB0F58F7BA
:1008F00011F460FFE8CF6F5F7F4F8F4F9F4FE3CFC3
:100900000C941C0316F00C9478050C94D702689490
:100910000C94D1020E940103A8F39923C1F3AEF312
:10092000DF93CF931F930F93FF92C92FDD27882367
:100930002AF02197660F771F881FDAF720E030E052
:1009400040E85FEB9FE3883920F0803E38F0219645
:100950008F770E94C901E0E9F0E004C00E94C9015C
:10096000EDEBF0E00E9419048B01BE01EC01FB2EBF
:100970006F5771097595771F880B990B0E9472024A
:1009800028E132E741E35FE30E943503AF2D980190
:10099000AE01FF900F911F91CF91DF910E94E00176
:1009A0000C94E802FA01DC01AA0FBB1F9B01AC0109
:1009B000BF5728F4222733274427507820C0B75147
:1009C00090F4AB2F0024469537952795011CA395ED
:1009D000D2F3002071F0220F331F441FB395DAF3D6
:1009E0000ED00C94C80161307105A0E88A07B946A1
:1009F00030F49B01AC0166277727882790783096E2
:100A000021F0208331834283538308950E941A0585
:100A10000C94E8020E94E10258F00E94DA0240F0D1
:100A200029F45F3F29F00C94D10251110C941C035E
:100A30000C94D7020E94F90268F39923B1F355236D
:100A400091F3951B550BBB27AA27621773078407E1
:100A500038F09F5F5F4F220F331F441FAA1FA9F377
:100A600035D00E2E3AF0E0E832D091505040E69565
:100A7000001CCAF72BD0FE2F29D0660F771F881FC6
:100A8000BB1F261737074807AB07B0E809F0BB0BB9
:100A9000802DBF01FF2793585F4F3AF09E3F5105CD
:100AA00078F00C94D1020C941C035F3FE4F3983E61
:100AB000D4F3869577956795B795F7959F5FC9F7B6
:100AC000880F911D9695879597F90895E1E0660F37
:100AD000771F881FBB1F621773078407BA0720F0B0
:100AE000621B730B840BBA0BEE1F88F7E095089519
:100AF0009F3F31F0915020F4879577956795B79592
:100B0000880F911D9695879597F90895A29FB0013A
:100B1000B39FC001A39F700D811D1124911DB29F31
:0E0B2000700D811D1124911D0895F894FFCFD2
:100B2E0000409A4400609A4400809A4400A09A447F
:00000001FF
