:100000000C9475000C94C6030C9487000C94870024
:100010000C9487000C9487000C9487000C94870044
:100020000C9487000C9487000C9487000C94870034
:100030000C9487000C9487000C9487000C94870024
:100040000C9487000C9487000C9487000C94870014
:100050000C9487000C9487000C9487000C94870004
:100060000C9487000C94870007634236B79BD8A78F
:100070001A39685618AEBAAB558C1D3CB7CC5763CD
:10008000BD6DEDFD753EF6177231BF000000803F7B
:1000900008000000BE922449123EABAAAA2ABECD97
:1000A000CCCC4C3E00000080BEABAAAAAA3E000009
:1000B0000000BF000000803F000000000008417801
:1000C000D3BB4387D1133D190E3CC3BD4282AD2B38
:1000D0003E68EC8276BED98FE1A93E4C80EFFFBE30
:1000E00001C4FF7F3F000000000011241FBECFEFBE
:1000F000D8E0DEBFCDBF21E0A0E0B1E001C01D929D
:10010000A230B207E1F70E948B020C94E1070C9435
:1001100000001092C50087E68093C400E1ECF0E097
:10012000808188608083E2ECF0E08081866080835B
:100130000895E0ECF0E090819923E9F38093C60004
:10014000089585B5856085BD16BC0895E9E6F0E0A3
:10015000808183608083E89A0895CF92DF92EF9246
:10016000FF926B017C0120E030E040E251E40E940C
:1001700042048823B4F020E030E048EC52E4C701A8
:10018000B6010E944204082E000C990B8827990F93
:10019000881F992722E030E0A901481B590BCA01AA
:1001A00002C080E090E0FF90EF90DF90CF90089544
:1001B00090E0413009F44096611103C0805A9F4F8E
:1001C0000895613019F4805C9F4F0895623009F4FE
:1001D000809608952F923F924F925F926F927F92F6
:1001E0008F929F92AF92BF92CF92DF92EF92FF9247
:1001F0000F931F93CF93DF93CDB7DEB7CA59D109C1
:100200000FB6F894DEBF0FBECDBF4C013B011E01FF
:100210008DE4280E311CFE0131962F015F01610132
:10022000EE24E394F12C00E010E0C756DF4F198371
:100230000883C959D04000FD53C0C80111230CF4F4
:10024000019695958795FC01EE0FFF1FEE0FFF1F9E
:10025000E80DF91D4081518162817381F501408370
:100260005183628373830115110519F00231110561
:1002700089F4880F991F880F991FF301E80FF91F60
:1002800080819181A281B381F60180839183A283D1
:10029000B38367C0C701FF200CF40196959587953D
:1002A000880F991F880F991F860D971DFC0138979D
:1002B000DC0114972D913D914D915C91608171818C
:1002C000828193810E94D60320E030E040E05FE32A
:1002D0000E94A105F601608371838283938341C0EC
:1002E000F701FF200CF43196F595E795EE0FFF1F0F
:1002F000EE0FFF1FE80DF91DDF01149720813181FA
:10030000428153816D917D918D919C910E94D60384
:1003100020E030E040E05FE30E94A105F50160834A
:10032000718382839383C756DF4F28813981C959EE
:10033000D04021503109C90199230CF40196FC01E8
:10034000F595E795EE0FFF1FEE0FFF1FE60DF71D6A
:1003500080819181A281B381F60180839183A28300
:10036000B3830F5F1F4FFFEFEF1AFF0A84E0C80E41
:10037000D11C94E0A90EB11C0331110509F055CF31
:100380008E01035B1F4FC12CD12C7601F2016191CC
:100390007191819191912F01F101219131914191BF
:1003A00051911F010E94A1059B01AC01C701B6013B
:1003B0000E94D6036B017C014016510639F720E0FC
:1003C00030E048E951E40E944704C656DF4F0FB6BB
:1003D000F894DEBF0FBECDBFDF91CF911F910F917B
:1003E000FF90EF90DF90CF90BF90AF909F908F9055
:1003F0007F906F905F904F903F902F90089517B827
:10040000EAE7F0E0808187688083ECE7F0E08081B4
:10041000806480830895ECE7F0E080818E7F8083A4
:1004200080818D7F808380818B7F8083EAE7F0E00D
:10043000808180648083808184FFFDCF80917800FB
:10044000909179000895019761F4ECE7F0E08081E4
:100450008160808380818D7F8083808184608083C0
:100460000BC0ECE7F0E080818E7F808380818D7F00
:10047000808380818B7F8083EAE7F0E080818064E5
:100480008083808184FFFDCF8091780090917900F6
:100490000895BC0180E090E00E94EF0420E030EC81
:1004A0004FE754E40E94470420E030E040EA50E483
:1004B0000E94A10508954115510571F42AE939E911
:1004C00049ED5FE30E94D503905820E030E044EC12
:1004D00052E40E94A10508954130510571F427EDC1
:1004E00033EA40ED5FE30E94D503905826E636E6F6
:1004F00046EB50E40E944704089525E83BEE41EDA9
:100500005FE30E94D503905822E538EB43E052E4C4
:100510000E9447040895CF93DF93CDB7DEB7CB5544
:10052000D1090FB6F894DEBF0FBECDBF78940E94FC
:10053000FF010E9489000E94A1000E94A600212CB8
:10054000412C512C8E010F5F1F4F6A960FAF6A9797
:100550006B961FAF6B976894662461F8712C21E548
:1005600030E02C0F3D1F2D5F3F4F69963FAF2EAF00
:100570006997322C31E06C963FAF6C972092000166
:10058000809100018823E1F3E42CF52CE0FC1BC0F2
:100590000E940B020E944902442D552D0E945B02CD
:1005A0009701FF2014F42F5F3F4FF901F595E79570
:1005B000EE0FFF1FEE0FFF1FE00FF11F60A771A7E7
:1005C00082A793A71EC0842D952D0E9423020E940E
:1005D000490241E050E00E945B029701215031093D
:1005E000A90112F44F5F5F4FFA01F595E795EE0F01
:1005F000FF1FEE0FFF1FE00FF11F608371838283E7
:1006000093838FEFE81AF80A93E1E916F10409F0F1
:10061000BDCF6A966FAD6A976B967FAD6B97CE0133
:1006200089960E94EA0020E030E048EC52E40E9403
:10063000A1050E945E0620E030E048EC52E40E94F2
:1006400047046B017C010E94AD004C019924F30129
:10065000E819F9096796FFAFEEAF6797BF01FF0F83
:10066000880B990B0E94F1049B01AC0160E070E0E3
:1006700080E291E40E940E06A70196010E94A10566
:1006800020E030E040E05FE30E94D6030E94B9041E
:100690006B016996AEACBFAC69977301E814F904BD
:1006A00061F46C964FAD6C9767962EAD3FAD679732
:1006B000121613061CF0432D01C0432D9601ADEC1C
:1006C000BCEC0E94D207969587959695879596954E
:1006D00087959C01220F331F880F991F880F991F40
:1006E000880F991F820F931F6E2D3C2D381B832F6F
:1006F0000E94D800F50182935F019601ADECBCEC3D
:100700000E94D2076C01D694C794D694C794D6940D
:10071000C794F1E0EF1AF10808F63FE065963FAFA5
:10072000659762968FAD62970E9499008FED9EE269
:100730000197F1F700C00000FF24F39468011F2D1A
:1007400013C0E1E5F0E0EC0FFD1FE10FF11D80812A
:100750000E949900EFEDFEE23197F1F700C0000032
:100760001F5F143009F4132D86B58C3950F316BC75
:1007700080910101823321F4860120920101FECE95
:10078000809101018F5F80930101DBCF1F920F9257
:100790000FB60F9211248F9381E0809300018F9107
:1007A0000F900FBE0F901F9018955058BB27AA2787
:1007B0000E94ED030C9467050E94590538F00E94D1
:1007C000600520F039F49F3F19F426F40C94560587
:1007D0000EF4E095E7FB0C945005E92F0E94780594
:1007E00058F3BA17620773078407950720F079F466
:1007F000A6F50C949A050EF4E0950B2EBA2FA02DB9
:100800000B01B90190010C01CA01A0011124FF27BD
:10081000591B99F0593F50F4503E68F11A16F040B8
:10082000A22F232F342F4427585FF3CF46953795B7
:100830002795A795F0405395C9F77EF41F16BA0B7C
:10084000620B730B840BBAF09150A1F0FF0FBB1F2A
:10085000661F771F881FC2F70EC0BA0F621F731F73
:10086000841F48F4879577956795B795F7959E3FD0
:1008700008F0B0CF9395880F08F09927EE0F979561
:10088000879508950E942C0508F481E008950E9440
:100890005B040C9467050E94600558F00E9459059E
:1008A00040F029F45F3F29F00C94500551110C944D
:1008B0009B050C9456050E94780568F39923B1F3C3
:1008C000552391F3951B550BBB27AA276217730776
:1008D000840738F09F5F5F4F220F331F441FAA1F0A
:1008E000A9F335D00E2E3AF0E0E832D091505040C6
:1008F000E695001CCAF72BD0FE2F29D0660F771F74
:10090000881FBB1F261737074807AB07B0E809F059
:10091000BB0B802DBF01FF2793585F4F3AF09E3FDE
:10092000510578F00C9450050C949B055F3FE4F35F
:10093000983ED4F3869577956795B795F7959F5F21
:10094000C9F7880F911D9695879597F90895E1E06D
:10095000660F771F881FBB1F621773078407BA07CC
:1009600020F0621B730B840BBA0BEE1F88F7E09527
:1009700008950E94C0046894B1110C949B050895D9
:100980000E94800588F09F5798F0B92F9927B7519A
:10099000B0F0E1F0660F771F881F991F1AF0BA9523
:1009A000C9F714C0B13091F00E949A05B1E00895E2
:1009B0000C949A05672F782F8827B85F39F0B93FD4
:1009C000CCF3869577956795B395D9F73EF49095D6
:1009D0008095709561957F4F8F4F9F4F0895E89454
:1009E00009C097FB3EF490958095709561957F4F77
:1009F0008F4F9F4F9923A9F0F92F96E9BB27939525
:100A0000F695879577956795B795F111F8CFFAF434
:100A1000BB0F11F460FF1BC06F5F7F4F8F4F9F4F65
:100A200016C0882311F096E911C0772321F09EE8C3
:100A3000872F762F05C0662371F096E8862F70E029
:100A400060E02AF09A95660F771F881FDAF7880F03
:100A50009695879597F90895990F0008550FAA0B59
:100A6000E0E8FEEF16161706E807F907C0F01216C1
:100A70001306E407F50798F0621B730B840B950BC4
:100A800039F40A2661F0232B242B252B21F4089519
:100A90000A2609F4A140A6958FEF811D811D0895B6
:100AA00097F99F6780E870E060E008959FEF80EC21
:100AB000089500240A9416161706180609060895C4
:100AC00000240A9412161306140605060895092E2A
:100AD0000394000C11F4882352F0BB0F40F4BF2B99
:100AE00011F460FF04C06F5F7F4F8F4F9F4F0895D9
:100AF00057FD9058440F551F59F05F3F71F04795CF
:100B0000880F97FB991F61F09F3F79F087950895B3
:100B1000121613061406551FF2CF4695F1DF08C0D2
:100B2000161617061806991FF1CF869571056105EF
:100B300008940895E894BB2766277727CB0197F997
:100B400008950E94B4050C9467050E94590538F079
:100B50000E94600520F0952311F00C9450050C9430
:100B6000560511240C949B050E94780570F3959FFF
:100B7000C1F3950F50E0551F629FF001729FBB2794
:100B8000F00DB11D639FAA27F00DB11DAA1F649F30
:100B90006627B00DA11D661F829F2227B00DA11DE3
:100BA000621F739FB00DA11D621F839FA00D611D69
:100BB000221F749F3327A00D611D231F849F600D8A
:100BC000211D822F762F6A2F11249F5750409AF0B3
:100BD000F1F088234AF0EE0FFF1FBB1F661F771F3F
:100BE000881F91505040A9F79E3F510580F00C940A
:100BF00050050C949B055F3FE4F3983ED4F3869533
:100C000077956795B795F795E7959F5FC1F7FE2BA9
:100C1000880F911D9695879597F90895FA01EE0F23
:100C2000FF1F309621053105A1F16115710561F4B1
:100C30008038BFE39B0749F168949038810561F0E3
:100C40008038BFEF9B0741F099234AF5FF3FE1054C
:100C50003105210519F1E8940894E795D901AA23F3
:100C600029F4AB2FBE2FF85FD0F310C0FF5F70F4F4
:100C7000A695E0F7F73950F019F0FF3A38F49F776E
:100C80009F930DD00F9007FC9058089546F00C9458
:100C9000560560E070E080E89FE308954FE79F7796
:100CA0005F934F933F932F930E9456072F913F914D
:100CB0004F915F910E94A1050C948A060E948005C5
:100CC000E8F09E37E8F09639B8F49E3848F4672F7C
:100CD000782F8827985FF9CF8695779567959395B4
:100CE0009539D0F3B62FB1706B0F711D811D20F4B3
:100CF00087957795679593950C94BC060C94D706C9
:100D00000C949B0529F416F00C9450050C949A054C
:100D10000C9456050E948005A8F39638A0F707F8B2
:100D20000F92E8942BE33AEA48EB5FE70E94B7059D
:100D30000F920F920F924DB75EB70F920E949E07CF
:100D4000E8E6F0E00E94E5064F915F91EF91FF9198
:100D5000E595EE1FFF1F49F0FE57E0684427EE0FB0
:100D6000441FFA95E1F74195550B0E9418070F9023
:100D700007FE0C940C070895882371F4772321F063
:100D80009850872B762F07C0662311F499270DC042
:100D90009051862B70E060E02AF09A95660F771FDD
:100DA000881FDAF7880F9695879597F908959F3FE2
:100DB00031F0915020F4879577956795B795880F16
:100DC000911D9695879597F90895DF93CF931F937B
:100DD0000F93FF92EF92DF927B018C01689406C023
:100DE000DA2EEF010E94B405FE01E894A591259149
:100DF000359145915591A6F3EF010E94ED03FE0157
:100E00009701A801DA9469F7DF90EF90FF900F91B6
:100E10001F91CF91DF9108959B01AC0160E070E0DC
:100E200080E89FE30C9447040C9450050C94D7067B
:100E30000E948005D8F39923C9F3940F511DA3F3A1
:100E40009150504094F059F0882332F0660F771F8C
:100E5000881F91505040C1F79E3F51052CF7880FD5
:100E6000911D9695879597F908955F3FACF0983E50
:100E70009CF0BB27869577956795B79508F4B16088
:100E80009395C1F7BB0F58F711F460FFE8CF6F5F80
:100E90007F4F8F4F9F4FE3CF0C949B0516F00C9420
:100EA000D7060C94560568940C9450050E94800552
:100EB000A8F39923C1F3AEF3DF93CF931F930F935E
:100EC000FF92C92FDD2788232AF02197660F771F0D
:100ED000881FDAF720E030E040E85FEB9FE38839D5
:100EE00020F0803E38F021968F770E94D603E0E90B
:100EF000F0E004C00E94D603EDEBF0E00E94E506AE
:100F00008B01BE01EC01FB2E6F5771097595771FA0
:100F1000880B990B0E94F10428E132E741E35FE37B
:100F20000E94B405AF2D9801AE01FF900F911F9163
:100F3000CF91DF910E94ED030C946705FA01DC016B
:100F4000AA0FBB1F9B01AC01BF5728F422273327F0
:100F50004427507820C0B75190F4AB2F0024469519
:100F600037952795011CA395D2F3002071F0220F2D
:100F7000331F441FB395DAF30ED00C94D5036130C0
:100F80007105A0E88A07B94630F49B01AC016627D9
:100F9000772788279078309621F020833183428309
:100FA00053830895A29FB001B39FC001A39F700D0A
:100FB000811D1124911DB29F700D811D1124911D61
:060FC0000895F894FFCF34
:00000001FF
