S00F000067726F757033372E737265637E
S11300000C9475000C94F0060C9487000C948700F3
S11300100C9487000C9487000C9487000C94870040
S11300200C9487000C9487000C9487000C94FF06B2
S11300300C9487000C9487000C9487000C94870020
S11300400C9487000C9487000C9487000C94870010
S11300500C9487000C9487000C9487000C94870000
S11300600C9487000C94870007634236B79BD8A78B
S11300701A39685618AEBAAB558C1D3CB7CC5763C9
S1130080BD6DEDFD753EF6177231BF000000803F77
S113009008000000BE922449123EABAAAA2ABECD93
S11300A0CCCC4C3E00000080BEABAAAAAA3E000005
S11300B00000BF000000803F0000000000084178FD
S11300C0D3BB4387D1133D190E3CC3BD4282AD2B34
S11300D03E68EC8276BED98FE1A93E4C80EFFFBE2C
S11300E001C4FF7F3F000000000011241FBECFEFBA
S11300F0D8E0DEBFCDBF21E0A0E0B1E001C01D9299
S1130100A630B207E1F70E948F040C94910B0C9473
S113011000001092C50087E68093C400E1ECF0E093
S1130120808188608083E2ECF0E080818660808357
S11301300895E0ECF0E090819923E9F38093C60000
S1130140089585B5856085BD16BC08951092890013
S113015010928800E1E8F0E0808188608083AFE657
S1130160B0E08C9182608C93808185608083089557
S1130170E9E6F0E0808183608083E89A0895CF9275
S1130180DF92EF92FF926B017C0120E030E040E2CD
S113019051E40E947E078823B4F020E030E048EC6C
S11301A052E4C701B6010E947E07082E000C990B89
S11301B08827990F881F992722E030E0A901481B5E
S11301C0590BCA0102C080E090E0FF90EF90DF90ED
S11301D0CF90089590E0413009F44096611103C036
S11301E0805A9F4F0895613019F4805C9F4F0895A1
S11301F0623009F4809608954F925F926F927F92D5
S11302008F929F92AF92BF92CF92DF92EF92FF9222
S11302100F931F93CF93DF93CDB7DEB7C85ED10999
S11302200FB6F894DEBF0FBECDBFFE013196E62EA9
S1130230F72E9E01275D3F4F8901DC014D915D91B1
S11302406D917D91CD014193519361937193D70148
S11302504D915D916D917D917D01D9014D935D939A
S11302606D937D939D01E017F10739F74E01BDE9C8
S11302708B0E911C7E01E1E5EE0EF11C5701640129
S113028000E010E0380100FD61C0C80111230CF446
S1130290019695958795FC01EE0FFF1FEE0FFF1F4A
S11302A021E030E02C0F3D1FE20FF31F408151810C
S11302B062817381D5014D935D936D937C93139704
S11302C00115110519F002311105A1F4880F991FC8
S11302D0880F991FE1E0F0E0EC0FFD1FE80FF91F14
S11302E080A591A5A2A5B3A5F60180839183A283DD
S11302F0B3837EC0DC011197AA0FBB1FAA0FBB1FDB
S113030021E030E02C0F3D1FA20FB31F880F991F6F
S1130310880F991FF901E80FF91F20A531A542A5FF
S113032053A598966D917D918D919C919B970E9478
S1130330120720E030E040E05FE30E94E208D601CB
S11303406D937D938D939C93139752C098012F5F67
S11303503F4FC90199230CF4019695958795DC01CB
S11303601197AA0FBB1FAA0FBB1FE1E0F0E0EC0F2F
S1130370FD1FAE0FBF1F880F991F880F991FE1E063
S1130380F0E0EC0FFD1FE80FF91F2081318142815D
S113039053816D917D918D919C910E94120720E073
S11303A030E040E05FE30E94E208D5016D937D9365
S11303B08D939C931397B1E06B1A7108C301992331
S11303C00CF40196FC01F595E795EE0FFF1FEE0F77
S11303D0FF1F21E030E02C0F3D1FE20FF31F80A52B
S11303E091A5A2A5B3A5F60180839183A283B383CB
S11303F00F5F1F4FF4E0CF0ED11C24E0A20EB11CFE
S11304000331110509F03ECF8E0103561F4F412CD5
S1130410512C3201D7016D917D918D919D917D017A
S1130420F40121913191419151914F010E94E208CF
S11304309B01AC01C301B2010E9412072B013C01D4
S1130440E016F10639F720E030E048E951E40E9473
S1130450830720E030E048E551E40E94E208C851F7
S1130460DF4F0FB6F894DEBF0FBECDBFDF91CF9143
S11304701F910F91FF90EF90DF90CF90BF90AF90BE
S11304809F908F907F906F905F904F9008958F9280
S11304909F92AF92BF92CF92DF92EF92FF920F930F
S11304A01F93CF93DF93CDB7DEB7C457D1090FB6EF
S11304B0F894DEBF0FBECDBFFC01DE011196889615
S11304C041915191619171914D935D936D937D93A0
S11304D0E817F907A9F77E0129E2E20EF11C67018A
S11304E000E010E000FD1BC0C80111230CF40196CC
S11304F0FC01F595E795EE0FFF1FEE0FFF1F81E05E
S113050090E08C0F9D1FE80FF91F80819181A281DB
S1130510B381F60180839183A283B38331C09801B0
S11305202F5F3F4FC90199230CF401969595879548
S1130530DC011197AA0FBB1FAA0FBB1F21E030E0FB
S11305402C0F3D1FA20FB31F880F991F880F991FEF
S1130550F901E80FF91F20813181428153816D91A6
S11305607D918D919C910E94120720E030E040E043
S11305705FE30E94E208F6016083718382839383C0
S11305800F5F1F4FF4E0CF0ED11C0331110509F0AA
S1130590A9CF8E010B581F4F812C912C5401F701C8
S11305A061917191819191917F019B01AC010E94B4
S11305B0E2089B01AC01C501B4010E9412074B0182
S11305C05C01E016F10659F720E030E048E951E417
S11305D0C501B4010E9483070E94C90920E030E0EC
S11305E048E551E40E94E208CC58DF4F0FB6F89476
S11305F0DEBF0FBECDBFDF91CF911F910F91FF9052
S1130600EF90DF90CF90BF90AF909F908F90089520
S11306108F929F92AF92BF92CF92DF92EF92FF920E
S11306200F931F93CF93DF93CDB7DEB7C457D10990
S11306300FB6F894DEBF0FBECDBFFC01DE011196EC
S1130640889641915191619171914D935D936D9310
S11306507D93E817F907A9F77E0129E2E20EF11C60
S1130660670100E010E000FD50C00115110519F00C
S113067002311105D9F4C80111230CF40196FC01CF
S1130680F595E795EE0FFF1FEE0FFF1F81E090E059
S11306908C0F9D1FE80FF91F80819181A281B38186
S11306A0F60180839183A283B3834CC0C8011123D4
S11306B00CF4019695958795DC011197AA0FBB1F41
S11306C0AA0FBB1F21E030E02C0F3D1FA20FB31F68
S11306D0880F991F880F991FF901E80FF91F2081CE
S11306E03181428153816D917D918D919C910E94C4
S11306F0120720E030E040E05FE30E94E208F601E8
S113070060837183828393831DC0980121503109D2
S1130710C90199230CF40196FC01F595E795EE0FB8
S1130720FF1FEE0FFF1F21E030E02C0F3D1FE20FF3
S1130730F31F80819181A281B381F601808391832B
S1130740A283B3830F5F1F4FF4E0CF0ED11C03319C
S1130750110509F088CF8E010B581F4F812C912C65
S11307605401F70161917191819191917F019B01F4
S1130770AC010E94E2089B01AC01C501B4010E94D6
S113078012074B015C01E016F10659F720E030E056
S113079048E951E4C501B4010E9483070E94C909D4
S11307A0CC58DF4F0FB6F894DEBF0FBECDBFDF913C
S11307B0CF911F910F91FF90EF90DF90CF90BF905A
S11307C0AF909F908F90089517B8EAE7F0E080818A
S11307D087688083ECE7F0E08081806480830895FB
S11307E0ECE7F0E080818E7F808380818D7F808341
S11307F080818B7F8083EAE7F0E08081806480835E
S1130800808184FFFDCF80917800909179000895D4
S1130810019761F4ECE7F0E080818160808380815E
S11308208260808380818B7F80830BC0ECE7F0E063
S113083080818160808380818D7F808380818460DA
S11308408083EAE7F0E0808180648083808184FF94
S1130850FDCF80917800909179000895BC0180E0EB
S113086090E00E942B0820E030EC4FE754E40E9413
S1130870830720E030E040EA50E40E94E208089553
S113088041155105D9F42AE939E949ED5FE30E949C
S113089011079B01AC0161E77DE38AE89EE30E94B6
S11308A011072AE037ED43E85FE30E94830725E55B
S11308B031EC48E85FE30E94E208089541305105B5
S11308C0D1F425E83BEE41ED5FE30E941107905817
S11308D02DEC3CEC44EB50E40E9483072AE939E90F
S11308E049E95EE30E94830721E73DE34AE85FE3C9
S11308F00E94E208089525E83BEE41ED5FE30E9483
S11309001107905826E636E646E451E40E94830730
S11309102AE939E949E95EE30E9483070895CF9300
S1130920DF93CDB7DEB7C456D1090FB6F894DEBF56
S11309300FBECDBF78940E94E4030E9489000E94F8
S1130940A1000E94A6000E94B800259A99249394BD
S1130950A0961CAE1DAE1EAE1FAEA097A12CB12C4E
S11309609E012F5F3F4F19016B962FAF6B976C96CB
S11309703FAE6C9781E590E08C0F9D1F0396A49683
S11309809FAF8EAFA49791E0A5969FAFA59766966B
S11309909FAE669710920401809104018823E1F3CD
S11309A00A2D1B2D6696AFAD6697EA2EF12C6701D2
S11309B0BFEFCB1ADB0A00FD1BC00E94F0030E94AC
S11309C02E044A2D5B2D0E9440049801112314F437
S11309D02F5F3F4FF901F595E795EE0FFF1FEE0FDF
S11309E0FF1FE20DF31D60A771A782A793A71CC088
S11309F0C7010E9408040E942E04A6010E9440041C
S1130A00A801415051099A0112F42F5F3F4FF90197
S1130A10F595E795EE0FFF1FEE0FFF1FE20DF31D97
S1130A2060837183828393830F5F1F4F03311105AA
S1130A3011F66B968FAD6B976C969FAD6C970E9479
S1130A4008032DE33AE047E55EE30E94DD0818164B
S1130A5034F46696EFAD6697E111B9C106C06696A7
S1130A60FFAD6697F13009F0B6C1A0966CAD7DADCF
S1130A708EAD9FADA0972AE030E040E050E00E94A8
S1130A80600B6A966CAF7DAF8EAF9FAF6A972B01F8
S1130A903C01643071058105910508F064C06B96D2
S1130AA06FAD6B976C967FAD6C97CE0189960E9463
S1130AB0FC00162F072F882E992E2EEA37E447EADA
S1130AC050E40E94DD08882344F081E090E0A8E827
S1130AD0B0E011969C938E9393C02EEA37E447EAD4
S1130AE050E4612F702F882D992D0E947E07882352
S1130AF09CF42DE33AE04FE550E4612F702F882DEC
S1130B00992D0E94DD0888233CF08CE29AE0E8E805
S1130B10F0E09183808374C02DE33AE04FE550E424
S1130B20612F702F882D992D0E947E078823A4F4AD
S1130B302DE33AE04FED5FE3612F702F882D992D5F
S1130B400E94DD08882344F082E49FE0A8E8B0E036
S1130B5011969C938E9354C084E89EE1E8E8F0E0FB
S1130B60918380834DC06A968CAD9DADAEADBFAD13
S1130B706A970497A109B1090397A105B10598F4EF
S1130B806B968FAD6B976C969FAD6C970E94080324
S1130B9023EF34E045EB5FE30E94E208162F072FB2
S1130BA0882E992E2DC0F7E04F165104610471046C
S1130BB018F1CE0189960E9447026B017C012091B5
S1130BC000013091010140910201509103010E9402
S1130BD0120720E030E040E05FE30E94E208162FB5
S1130BE0072F882E992EC0920001D0920101E09225
S1130BF00201F092030104C010E000E0812C912C6A
S1130C0020E030E048EC52E4612F702F882D992DBC
S1130C100E94E2080E949F0920E030E048EC52E480
S1130C200E9483076B017C010E94BF004C01992440
S1130C3022E030E028193909A2963FAF2EAFA297DF
S1130C40B901330F880B990B0E942D089B01AC014D
S1130C5060E070E080E291E40E944F09A7019601F0
S1130C600E94E20820E030E040E05FE30E941207C7
S1130C700E94F5077B01A496CEACDFACA49702E0FA
S1130C8010E00815190561F4A5964FADA597A29635
S1130C908EAD9FADA297181619061CF040E001C056
S1130CA040E09701ADECBCEC0E94820B96958795D1
S1130CB096958795969587959C01220F331F880FEB
S1130CC0991F880F991F880F991F820F931F602FF8
S1130CD0AE2DA81B8A2F0E94EA00F60182936F01B1
S1130CE09701ADECBCEC0E94820B7C01F694E79476
S1130CF0F694E794F694E7940150110910F624E071
S1130D00421651046104710428F48FE065968FAF94
S1130D1065971CC06A968CAD9DADAEADBFAD6A97AC
S1130D200497A109B1090397A105B10528F48DE041
S1130D3065968FAF65970AC037E043165104610486
S1130D40710420F08EE065968FAF659762968FAD43
S1130D5062970E9499008FED9EE20197F1F700C01F
S1130D60000011E000E013C0E1E5F0E0EC0FFD1F2E
S1130D70E10FF11D80810E949900AFEDBEE2119751
S1130D80F1F700C000001F5F143009F4102F86B57E
S1130D908C3950F316BC80910501823391F4109282
S1130DA00501A0968CAD9DADAEADBFADA0970196EB
S1130DB0A11DB11DA0968CAF9DAFAEAFBFAFA097E4
S1130DC0E9CD809105018F5F80930501CDCF6696B3
S1130DD01FAE6697DFCD91E066969FAF6697DACD3A
S1130DE01F920F920FB60F9211248F9381E080937C
S1130DF004018F910F900FBE0F901F9018951F92B2
S1130E000F920FB60F9211248F939F9395B180E2A6
S1130E10892785B99F918F910F900FBE0F901F90D6
S1130E2018955058BB27AA270E9429070C94A30899
S1130E300E94950838F00E949C0820F039F49F3FE6
S1130E4019F426F40C9492080EF4E095E7FB0C9444
S1130E508C08E92F0E94B40858F3BA176207730785
S1130E608407950720F079F4A6F50C94D6080EF4BF
S1130E70E0950B2EBA2FA02D0B01B90190010C01A6
S1130E80CA01A0011124FF27591B99F0593F50F4BE
S1130E90503E68F11A16F040A22F232F342F442716
S1130EA0585FF3CF469537952795A795F04053950E
S1130EB0C9F77EF41F16BA0B620B730B840BBAF0DE
S1130EC09150A1F0FF0FBB1F661F771F881FC2F749
S1130ED00EC0BA0F621F731F841F48F4879577955D
S1130EE06795B795F7959E3F08F0B0CF9395880F17
S1130EF008F09927EE0F9795879508950E94680842
S1130F0008F481E008950E9497070C94A3080E94B6
S1130F109C0858F00E94950840F029F45F3F29F09E
S1130F200C948C0851110C94D7080C9492080E94CC
S1130F30B40868F39923B1F3552391F3951B550B2A
S1130F40BB27AA2762177307840738F09F5F5F4F98
S1130F50220F331F441FAA1FA9F335D00E2E3AF0D7
S1130F60E0E832D091505040E695001CCAF72BD0EF
S1130F70FE2F29D0660F771F881FBB1F2617370740
S1130F804807AB07B0E809F0BB0B802DBF01FF2772
S1130F9093585F4F3AF09E3F510578F00C948C08BB
S1130FA00C94D7085F3FE4F3983ED4F38695779585
S1130FB06795B795F7959F5FC9F7880F911D96952B
S1130FC0879597F90895E1E0660F771F881FBB1F87
S1130FD0621773078407BA0720F0621B730B840B34
S1130FE0BA0BEE1F88F7E09508950E94FC076894F9
S1130FF0B1110C94D70808950E94BC0888F09F573B
S113100098F0B92F9927B751B0F0E1F0660F771F28
S1131010881F991F1AF0BA95C9F714C0B13091F01E
S11310200E94D608B1E008950C94D608672F782F53
S11310308827B85F39F0B93FCCF3869577956795E3
S1131040B395D9F73EF490958095709561957F4F4F
S11310508F4F9F4F0895E89409C097FB3EF49095F5
S11310608095709561957F4F8F4F9F4F9923A9F07D
S1131070F92F96E9BB279395F6958795779567950C
S1131080B795F111F8CFFAF4BB0F11F460FF1BC050
S11310906F5F7F4F8F4F9F4F16C0882311F096E9E3
S11310A011C0772321F09EE8872F762F05C0662391
S11310B071F096E8862F70E060E02AF09A95660F4A
S11310C0771F881FDAF7880F9695879597F9089503
S11310D0990F0008550FAA0BE0E8FEEF1616170645
S11310E0E807F907C0F012161306E407F50798F0AD
S11310F0621B730B840B950B39F40A2661F0232BC6
S1131100242B252B21F408950A2609F4A140A69541
S11311108FEF811D811D089597F99F6780E870E026
S113112060E008959FEF80EC089500240A94161659
S1131130170618060906089500240A9412161306C1
S1131140140605060895092E0394000C11F488234F
S113115052F0BB0F40F4BF2B11F460FF04C06F5F6B
S11311607F4F8F4F9F4F089557FD9058440F551F41
S113117059F05F3F71F04795880F97FB991F61F015
S11311809F3F79F087950895121613061406551F8C
S1131190F2CF4695F1DF08C0161617061806991FF8
S11311A0F1CF86957105610508940895E894BB27ED
S11311B066277727CB0197F908950E94680808F4F9
S11311C08FEF08950E94F5080C94A3080E949508D7
S11311D038F00E949C0820F0952311F00C948C08A0
S11311E00C94920811240C94D7080E94B40870F34C
S11311F0959FC1F3950F50E0551F629FF001729FB8
S1131200BB27F00DB11D639FAA27F00DB11DAA1FC6
S1131210649F6627B00DA11D661F829F2227B00D13
S1131220A11D621F739FB00DA11D621F839FA00D9E
S1131230611D221F749F3327A00D611D231F849FEE
S1131240600D211D822F762F6A2F11249F57504045
S11312509AF0F1F088234AF0EE0FFF1FBB1F661FC0
S1131260771F881F91505040A9F79E3F510580F089
S11312700C948C080C94D7085F3FE4F3983ED4F3A5
S1131280869577956795B795F795E7959F5FC1F72D
S1131290FE2B880F911D9695879597F90895FA016D
S11312A0EE0FFF1F309621053105A1F1611571057F
S11312B061F48038BFE39B0749F168949038810555
S11312C061F08038BFEF9B0741F099234AF5FF3F57
S11312D0E1053105210519F1E8940894E795D90150
S11312E0AA2329F4AB2FBE2FF85FD0F310C0FF5F01
S11312F070F4A695E0F7F73950F019F0FF3A38F496
S11313009F779F930DD00F9007FC9058089546F057
S11313100C94920860E070E080E89FE308954FE742
S11313209F775F934F933F932F930E94E40A2F91EB
S11313303F914F915F910E94E2080C94110A0E9420
S1131340BC08E8F09E37E8F09639B8F49E3848F4C3
S1131350672F782F8827985FF9CF869577956795BB
S113136093959539D0F3B62FB1706B0F711D811D14
S113137020F487957795679593950C94430A0C947C
S11313805E0A0C94D70819F416F40C9492080C9481
S11313905E0A0E94BC08B8F39923C9F3B6F39F57B9
S11313A0550B87FF0E946C0A0024A0E640EA9001D6
S11313B080585695979528F4805C660F771F881F90
S11313C020F026173707480730F4621B730B840B91
S11313D0202931294A2BA6951794079420253125D5
S11313E04A2758F7660F771F881F20F026173707FC
S11313F0480730F4620B730B840B200D311D411D23
S1131400A09581F7B901842F9158880F96958795F7
S1131410089529F416F00C948C080C94D6080C94B6
S113142092080E94BC08A8F39638A0F707F80F9218
S1131430E8942BE33AEA48EB5FE70E94F8080F923E
S11314400F920F924DB75EB70F920E942C0BE8E6F5
S1131450F0E00E94730A4F915F91EF91FF91E5953F
S1131460EE1FFF1F49F0FE57E0684427EE0F441FAC
S1131470FA95E1F74195550B0E94A60A0F9007FED5
S11314800C949A0A0895882371F4772321F09850D4
S1131490872B762F07C0662311F499270DC090512E
S11314A0862B70E060E02AF09A95660F771F881FFC
S11314B0DAF7880F9695879597F908959F3F31F04D
S11314C0915020F4879577956795B795880F911D6E
S11314D09695879597F9089591505040660F771F18
S11314E0881FD2F70895DF93CF931F930F93FF9232
S11314F0EF92DF927B018C01689406C0DA2EEF0133
S11315000E94F508FE01E894A59125913591459135
S11315105591A6F3EF010E942907FE019701A80146
S1131520DA9469F7DF90EF90FF900F911F91CF91BC
S1131530DF9108959B01AC0160E070E080E89FE3D7
S11315400C9483070C948C080C945E0A0E94BC08CB
S1131550D8F39923C9F3940F511DA3F3915050402C
S113156094F059F0882332F0660F771F881F91504A
S11315705040C1F79E3F51052CF7880F911D969559
S1131580879597F908955F3FACF0983E9CF0BB2790
S1131590869577956795B79508F4B1609395C1F7EB
S11315A0BB0F58F711F460FFE8CF6F5F7F4F8F4F89
S11315B09F4FE3CF0C94D70816F00C945E0A0C945A
S11315C0920868940C948C080E94BC08A8F3992390
S11315D0C1F3AEF3DF93CF931F930F93FF92C92F01
S11315E0DD2788232AF02197660F771F881FDAF7F3
S11315F020E030E040E85FEB9FE3883920F0803E54
S113160038F021968F770E941207E0E9F0E004C0D9
S11316100E941207EDEBF0E00E94730A8B01BE01F9
S1131620EC01FB2E6F5771097595771F880B990B89
S11316300E942D0828E132E741E35FE30E94F508A8
S1131640AF2D9801AE01FF900F911F91CF91DF91C3
S11316500E9429070C94A308FA01DC01AA0FBB1FFE
S11316609B01AC01BF5728F4222733274427507825
S113167020C0B75190F4AB2F002446953795279599
S1131680011CA395D2F3002071F0220F331F441FD5
S1131690B395DAF30ED00C94110761307105A0E80C
S11316A08A07B94630F49B01AC016627772788275F
S11316B09078309621F020833183428353830895B8
S11316C0A1E21A2EAA1BBB1BFD010DC0AA1FBB1F42
S11316D0EE1FFF1FA217B307E407F50720F0A21BB4
S11316E0B30BE40BF50B661F771F881F991F1A9421
S11316F069F760957095809590959B01AC01BD014B
S1131700CF010895A29FB001B39FC001A39F700DA4
S1131710811D1124911DB29F700D811D1124911DF5
S10917200895F894FFCFC8
S9030000FC
