S00F000067726F757033372E737265637E
S11300000C9475000C9475050C9487000C9487006F
S11300100C9487000C9487000C9487000C94870040
S11300200C9487000C9487000C9487000C9484052E
S11300300C9487000C9487000C9487000C94870020
S11300400C9487000C9487000C9487000C94870010
S11300500C9487000C9487000C9487000C94870000
S11300600C9487000C94870007634236B79BD8A78B
S11300701A39685618AEBAAB558C1D3CB7CC5763C9
S1130080BD6DEDFD753EF6177231BF000000803F77
S113009008000000BE922449123EABAAAA2ABECD93
S11300A0CCCC4C3E00000080BEABAAAAAA3E000005
S11300B00000BF000000803F0000000000084178FD
S11300C0D3BB4387D1133D190E3CC3BD4282AD2B34
S11300D03E68EC8276BED98FE1A93E4C80EFFFBE2C
S11300E001C4FF7F3F000000000011241FBECFEFBA
S11300F0D8E0DEBFCDBF21E0A0E0B1E001C01D9299
S1130100A230B207E1F70E943E030C94160A0C9445
S113011000001092C50087E68093C400E1ECF0E093
S1130120808188608083E2ECF0E080818660808357
S11301300895E0ECF0E090819923E9F38093C60000
S1130140089585B5856085BD16BC08951092890013
S113015010928800E1E8F0E0808188608083AFE657
S1130160B0E08C9182608C93808185608083089557
S1130170E9E6F0E0808183608083E89A0895CF9275
S1130180DF92EF92FF926B017C0120E030E040E2CD
S113019051E40E9403068823B4F020E030E048ECE8
S11301A052E4C701B6010E940306082E000C990B05
S11301B08827990F881F992722E030E0A901481B5E
S11301C0590BCA0102C080E090E0FF90EF90DF90ED
S11301D0CF90089590E0413009F44096611103C036
S11301E0805A9F4F0895613019F4805C9F4F0895A1
S11301F0623009F4809608958F929F92AF92BF92D5
S1130200CF92DF92EF92FF920F931F93CF93DF93DE
S1130210CDB7DEB7C457D1090FB6F894DEBF0FBE11
S1130220CDBFFC01DE0111968896419151916191F7
S113023071914D935D936D937D93E817F907A9F739
S11302407E0129E2E20EF11C670100E010E000FDEE
S11302501BC0C80111230CF40196FC01F595E79528
S1130260EE0FFF1FEE0FFF1F81E090E08C0F9D1F2C
S1130270E80FF91F80819181A281B381F601808307
S11302809183A283B38331C098012F5F3F4FC9018B
S113029099230CF4019695958795DC011197AA0F83
S11302A0BB1FAA0FBB1F21E030E02C0F3D1FA20F84
S11302B0B31F880F991F880F991FF901E80FF91FC1
S11302C020813181428153816D917D918D919C91E9
S11302D00E94970520E030E040E05FE30E9467075A
S11302E0F60160837183828393830F5F1F4FF4E071
S11302F0CF0ED11C0331110509F0A9CF8E010B5883
S11303001F4F812C912C5401F701619171918191BE
S113031091917F019B01AC010E9467079B01AC0195
S1130320C501B4010E9497054B015C01E016F1067A
S113033059F720E030E048E951E4C501B4010E94D6
S113034008060E944E0820E030E048E551E40E948F
S11303506707CC58DF4F0FB6F894DEBF0FBECDBF92
S1130360DF91CF911F910F91FF90EF90DF90CF908D
S1130370BF90AF909F908F9008958F929F92AF926D
S1130380BF92CF92DF92EF92FF920F931F93CF937E
S1130390DF93CDB7DEB7C457D1090FB6F894DEBFEB
S11303A00FBECDBFFC01DE0111968896419151919B
S11303B0619171914D935D936D937D93E817F90766
S11303C0A9F77E0129E2E20EF11C670100E010E0CA
S11303D000FD50C00115110519F002311105D9F4C1
S11303E0C80111230CF40196FC01F595E795EE0F75
S11303F0FF1FEE0FFF1F81E090E08C0F9D1FE80FA1
S1130400F91F80819181A281B381F6018083918358
S1130410A283B3834CC0C80111230CF401969595B3
S11304208795DC011197AA0FBB1FAA0FBB1F21E000
S113043030E02C0F3D1FA20FB31F880F991F880FA8
S1130440991FF901E80FF91F2081318142815381FD
S11304506D917D918D919C910E94970520E030E0F3
S113046040E05FE30E946707F60160837183828343
S113047093831DC0980121503109C90199230CF4BB
S11304800196FC01F595E795EE0FFF1FEE0FFF1F98
S113049021E030E02C0F3D1FE20FF31F808191819A
S11304A0A281B381F60180839183A283B3830F5F1A
S11304B01F4FF4E0CF0ED11C0331110509F088CF92
S11304C08E010B581F4F812C912C5401F70161911F
S11304D07191819191917F019B01AC010E94670709
S11304E09B01AC01C501B4010E9497054B015C015D
S11304F0E016F10659F720E030E048E951E4C5017F
S1130500B4010E9408060E944E08CC58DF4F0FB673
S1130510F894DEBF0FBECDBFDF91CF911F910F9135
S1130520FF90EF90DF90CF90BF90AF909F908F900F
S1130530089517B8EAE7F0E0808187688083ECE7E4
S1130540F0E08081806480830895ECE7F0E08081AE
S11305508E7F808380818D7F808380818B7F808369
S1130560EAE7F0E0808180648083808184FFFDCFAE
S113057080917800909179000895019761F4ECE7F7
S1130580F0E08081816080838081826080838081CB
S11305908B7F80830BC0ECE7F0E0808181608083F7
S11305A080818D7F8083808184608083EAE7F0E0AE
S11305B0808180648083808184FFFDCF8091780076
S11305C0909179000895BC0180E090E00E94B0060B
S11305D020E030EC4FE754E40E94080620E030E0CD
S11305E040EA50E40E946707089541155105A9F4B3
S11305F02AE939E949ED5FE30E9496059B01AC01C4
S113060061E77DE38AE89EE30E94960528E431EEE3
S11306104AE75FE30E946707089541305105D1F42A
S113062025E83BEE41ED5FE30E949605905820E0FB
S113063030E040EA50E40E9408062AE939E949E931
S11306405EE30E94080621E73DE34AE85FE30E9477
S11306506707089525E83BEE41ED5FE30E949605A8
S1130660905826E636E646E451E40E9408062AE954
S113067039E949E95EE30E9408060895CF93DF93C0
S1130680CDB7DEB7C456D1090FB6F894DEBF0FBE9E
S1130690CDBF78940E9499020E9489000E94A10013
S11306A00E94A6000E94B800259A992493946E96FD
S11306B01CAE1DAE1EAE1FAE6E97A12CB12C9E01BA
S11306C02F5F3F4F19016F962FAF6F97A0963FAEE4
S11306D0A09781E590E08C0F9D1F0396A4969FAF91
S11306E08EAFA49791E0A5969FAFA59766969FAE0F
S11306F0669710920001809100018823E1F30A2D8E
S11307001B2D6696AFAD6697EA2EF12C6701BFEFFD
S1130710CB1ADB0A00FD1BC00E94A5020E94E30263
S11307204A2D5B2D0E94F5029801112314F42F5FCA
S11307303F4FF901F595E795EE0FFF1FEE0FFF1FF1
S1130740E20DF31D60A771A782A793A71CC0C70180
S11307500E94BD020E94E302A6010E94F502A801C4
S1130760415051099A0112F42F5F3F4FF901F59559
S1130770E795EE0FFF1FEE0FFF1FE20DF31D6083E1
S11307807183828393830F5F1F4F0331110511F629
S11307906F968FAD6F97A0969FADA0970E94BD01F5
S11307A02DE33AE047E55EE30E946207181634F44D
S11307B06696EFAD6697E1118FC106C06696FFADF0
S11307C06697F13009F08CC16E966CAD7DAD8EAD3F
S11307D09FAD6E972AE030E040E050E00E94E509CA
S11307E06A966CAF7DAF8EAF9FAF6A972B013C01C9
S11307F0643071058105910508F05EC0CE018996CB
S11308000E94FC00162F072FF82EE92E20E030E07E
S11308104CEC50E40E946207882344F081E090E0AD
S1130820A8E8B0E011969C938E936FC020E030E06E
S11308304CEC50E4612F702F8F2D9E2D0E940306E7
S113084088239CF420E030E048E850E4612F702FC6
S11308508F2D9E2D0E94620788233CF08CE29AE043
S1130860E8E8F0E09183808350C020E030E048E87D
S113087050E4612F702F8F2D9E2D0E940306882334
S1130880A4F420E030E048E050E4612F702F8F2D75
S11308909E2D0E946207882344F082E49FE0A8E82A
S11308A0B0E011969C938E9330C084E89EE1E8E812
S11308B0F0E09183808329C06A968CAD9DADAEAD86
S11308C0BFAD6A970497A109B1090397A105B105C2
S11308D048F4CE0189960E94FC00162F072FF82EAB
S11308E0E92E13C0F7E04F1651046104710448F077
S11308F0CE0189960E94FC00162F072FF82EE92EB0
S113090004C010E000E0F12CE12C20E030E048ECE1
S113091052E4612F702F8F2D9E2D0E9467070E9435
S1130920240820E030E048EC52E40E9408066B0101
S11309307C010E94BF004C01992422E030E0281978
S11309403909A2963FAF2EAFA297B901330F880B96
S1130950990B0E94B2069B01AC0160E070E080E25A
S113096091E40E94D407A70196010E94670720E042
S113097030E040E05FE30E9497050E947A067B0125
S1130980A496CEACDFACA49702E010E008151905DC
S113099061F4A5964FADA597A2968EAD9FADA29793
S11309A0181619061CF040E001C040E09701ADECB8
S11309B0BCEC0E94070A969587959695879596951F
S11309C087959C01220F331F880F991F880F991F49
S11309D0880F991F820F931F602FAE2DA81B8A2F9B
S11309E00E94EA00F60182936F019701ADECBCEC22
S11309F00E94070A7C01F694E794F694E794F6942F
S1130A00E7940150110910F624E0421651046104E0
S1130A10710428F48FE065968FAF65971CC06A96C1
S1130A208CAD9DADAEADBFAD6A970497A109B10978
S1130A300397A105B10528F48DE065968FAF6597FE
S1130A400AC037E0431651046104710420F08EE0BB
S1130A5065968FAF659762968FAD62970E949900F5
S1130A608FED9EE20197F1F700C0000011E000E075
S1130A7013C0E1E5F0E0EC0FFD1FE10FF11D8081F3
S1130A800E949900AFEDBEE21197F1F700C000009B
S1130A901F5F143009F4102F86B58C3950F316BC3F
S1130AA080910101823391F4109201016E968CAD14
S1130AB09DADAEADBFAD6E970196A11DB11D6E96F5
S1130AC08CAF9DAFAEAFBFAF6E9713CE80910101D7
S1130AD08F5F80930101CDCF66961FAE669709CED6
S1130AE091E066969FAF669704CE1F920F920FB661
S1130AF00F9211248F9381E0809300018F910F90C6
S1130B000FBE0F901F9018951F920F920FB60F9261
S1130B1011248F939F9395B180E2892785B99F9182
S1130B208F910F900FBE0F901F9018955058BB27B0
S1130B30AA270E94AE050C9428070E941A0738F0D1
S1130B400E94210720F039F49F3F19F426F40C94F5
S1130B5017070EF4E095E7FB0C941107E92F0E94A8
S1130B60390758F3BA17620773078407950720F00B
S1130B7079F4A6F50C945B070EF4E0950B2EBA2FCE
S1130B80A02D0B01B90190010C01CA01A00111248F
S1130B90FF27591B99F0593F50F4503E68F11A163B
S1130BA0F040A22F232F342F4427585FF3CF4695CC
S1130BB037952795A795F0405395C9F77EF41F16EE
S1130BC0BA0B620B730B840BBAF09150A1F0FF0FB8
S1130BD0BB1F661F771F881FC2F70EC0BA0F621FA4
S1130BE0731F841F48F4879577956795B795F79594
S1130BF09E3F08F0B0CF9395880F08F09927EE0F29
S1130C009795879508950E94ED0608F481E008956C
S1130C100E941C060C9428070E94210758F00E9489
S1130C201A0740F029F45F3F29F00C941107511181
S1130C300C945C070C9417070E94390768F39923F6
S1130C40B1F3552391F3951B550BBB27AA276217C4
S1130C507307840738F09F5F5F4F220F331F441FD1
S1130C60AA1FA9F335D00E2E3AF0E0E832D0915005
S1130C705040E695001CCAF72BD0FE2F29D0660FF2
S1130C80771F881FBB1F261737074807AB07B0E835
S1130C9009F0BB0B802DBF01FF2793585F4F3AF03B
S1130CA09E3F510578F00C9411070C945C075F3F4C
S1130CB0E4F3983ED4F3869577956795B795F795C1
S1130CC09F5FC9F7880F911D9695879597F90895A9
S1130CD0E1E0660F771F881FBB1F62177307840745
S1130CE0BA0720F0621B730B840BBA0BEE1F88F754
S1130CF0E09508950E9481066894B1110C945C07F4
S1130D0008950E94410788F09F5798F0B92F9927BA
S1130D10B751B0F0E1F0660F771F881F991F1AF0E2
S1130D20BA95C9F714C0B13091F00E945B07B1E0E5
S1130D3008950C945B07672F782F8827B85F39F0E4
S1130D40B93FCCF3869577956795B395D9F73EF47B
S1130D5090958095709561957F4F8F4F9F4F089523
S1130D60E89409C097FB3EF4909580957095619541
S1130D707F4F8F4F9F4F9923A9F0F92F96E9BB27F7
S1130D809395F695879577956795B795F111F8CF73
S1130D90FAF4BB0F11F460FF1BC06F5F7F4F8F4FDE
S1130DA09F4F16C0882311F096E911C0772321F0D4
S1130DB09EE8872F762F05C0662371F096E8862F6C
S1130DC070E060E02AF09A95660F771F881FDAF7C3
S1130DD0880F9695879597F90895990F0008550FF0
S1130DE0AA0BE0E8FEEF16161706E807F907C0F0AD
S1130DF012161306E407F50798F0621B730B840BB5
S1130E00950B39F40A2661F0232B242B252B21F48E
S1130E1008950A2609F4A140A6958FEF811D811D2E
S1130E20089597F99F6780E870E060E008959FEF68
S1130E3080EC089500240A9416161706180609066D
S1130E40089500240A94121613061406050608953C
S1130E50092E0394000C11F4882352F0BB0F40F4C4
S1130E60BF2B11F460FF04C06F5F7F4F8F4F9F4F04
S1130E70089557FD9058440F551F59F05F3F71F086
S1130E804795880F97FB991F61F09F3F79F08795ED
S1130E900895121613061406551FF2CF4695F1DF76
S1130EA008C0161617061806991FF1CF8695710506
S1130EB0610508940895E894BB2766277727CB013A
S1130EC097F908950E94ED0608F48FEF08950E94A3
S1130ED07A070C9428070E941A0738F00E94210709
S1130EE020F0952311F00C9411070C94170711248A
S1130EF00C945C070E94390770F3959FC1F3950F1A
S1130F0050E0551F629FF001729FBB27F00DB11D89
S1130F10639FAA27F00DB11DAA1F649F6627B00D19
S1130F20A11D661F829F2227B00DA11D621F739F02
S1130F30B00DA11D621F839FA00D611D221F749F10
S1130F403327A00D611D231F849F600D211D822F57
S1130F50762F6A2F11249F5750409AF0F1F088237E
S1130F604AF0EE0FFF1FBB1F661F771F881F9150AB
S1130F705040A9F79E3F510580F00C9411070C9442
S1130F805C075F3FE4F3983ED4F3869577956795C5
S1130F90B795F795E7959F5FC1F7FE2B880F911DD5
S1130FA09695879597F90895FA01EE0FFF1F3096ED
S1130FB021053105A1F16115710561F48038BFE3A4
S1130FC09B0749F168949038810561F08038BFEF40
S1130FD09B0741F099234AF5FF3FE10531052105BF
S1130FE019F1E8940894E795D901AA2329F4AB2FC1
S1130FF0BE2FF85FD0F310C0FF5F70F4A695E0F742
S1131000F73950F019F0FF3A38F49F779F930DD0D9
S11310100F9007FC9058089546F00C94170760E071
S113102070E080E89FE308954FE79F775F934F93C5
S11310303F932F930E9469092F913F914F915F91A4
S11310400E9467070C9496080E944107E8F09E37B7
S1131050E8F09639B8F49E3848F4672F782F88273B
S1131060985FF9CF86957795679593959539D0F3E1
S1131070B62FB1706B0F711D811D20F48795779584
S1131080679593950C94C8080C94E3080C945C073A
S113109019F416F40C9417070C94E3080E94410702
S11310A0B8F39923C9F3B6F39F57550B87FF0E94F2
S11310B0F1080024A0E640EA9001805856959795DF
S11310C028F4805C660F771F881F20F026173707E7
S11310D0480730F4621B730B840B202931294A2BF7
S11310E0A69517940794202531254A2758F7660FAB
S11310F0771F881F20F026173707480730F4620B44
S1131100730B840B200D311D411DA09581F7B9018E
S1131110842F9158880F96958795089529F416F091
S11311200C9411070C945B070C9417070E94410759
S1131130A8F39638A0F707F80F92E8942BE33AEA5D
S113114048EB5FE70E947D070F920F920F924DB715
S11311505EB70F920E94B109E8E6F0E00E94F80839
S11311604F915F91EF91FF91E595EE1FFF1F49F0BD
S1131170FE57E0684427EE0F441FFA95E1F74195C6
S1131180550B0E942B090F9007FE0C941F0908951C
S1131190882371F4772321F09850872B762F07C08A
S11311A0662311F499270DC09051862B70E060E0FE
S11311B02AF09A95660F771F881FDAF7880F96959D
S11311C0879597F908959F3F31F0915020F48795C2
S11311D077956795B795880F911D9695879597F99B
S11311E0089591505040660F771F881FD2F70895D5
S11311F0DF93CF931F930F93FF92EF92DF927B01C4
S11312008C01689406C0DA2EEF010E947A07FE0171
S1131210E894A5912591359145915591A6F3EF0157
S11312200E94AE05FE019701A801DA9469F7DF90E8
S1131230EF90FF900F911F91CF91DF9108959B0143
S1131240AC0160E070E080E89FE30C9408060C9425
S113125011070C94E3080E944107D8F39923C9F3BA
S1131260940F511DA3F39150504094F059F08823EA
S113127032F0660F771F881F91505040C1F79E3F90
S113128051052CF7880F911D9695879597F9089528
S11312905F3FACF0983E9CF0BB27869577956795A9
S11312A0B79508F4B1609395C1F7BB0F58F711F4E3
S11312B060FFE8CF6F5F7F4F8F4F9F4FE3CF0C945A
S11312C05C0716F00C94E3080C94170768940C94CC
S11312D011070E944107A8F39923C1F3AEF3DF93EA
S11312E0CF931F930F93FF92C92FDD2788232AF0F2
S11312F02197660F771F881FDAF720E030E040E877
S11313005FEB9FE3883920F0803E38F021968F7799
S11313100E949705E0E9F0E004C00E949705EDEB18
S1131320F0E00E94F8088B01BE01EC01FB2E6F5720
S113133071097595771F880B990B0E94B20628E1F5
S113134032E741E35FE30E947A07AF2D9801AE01D3
S1131350FF900F911F91CF91DF910E94AE050C94E5
S11313602807FA01DC01AA0FBB1F9B01AC01BF5780
S113137028F4222733274427507820C0B75190F40B
S1131380AB2F0024469537952795011CA395D2F3DE
S1131390002071F0220F331F441FB395DAF30ED0EF
S11313A00C94960561307105A0E88A07B94630F4BB
S11313B09B01AC016627772788279078309621F027
S11313C020833183428353830895A1E21A2EAA1BFA
S11313D0BB1BFD010DC0AA1FBB1FEE1FFF1FA217E1
S11313E0B307E407F50720F0A21BB30BE40BF50BDE
S11313F0661F771F881F991F1A9469F76095709567
S1131400809590959B01AC01BD01CF010895A29FE9
S1131410B001B39FC001A39F700D811D1124911DC4
S1131420B29F700D811D1124911D0895F894FFCF72
S9030000FC
