:100000000C9475000C9492000C9492000C94920045
:100010000C9492000C9492000C9492000C94920018
:100020000C9492000C9492000C9492000C94920008
:100030000C9492000C9492000C9492000C949200F8
:100040000C9492000C9492000C9492000C949200E8
:100050000C9492000C9492000C9492000C949200D8
:100060000C9492000C94920007634236B79BD8A779
:100070001A39685618AEBAAB558C1D3CB7CC5763CD
:10008000BD6DEDFD753EF6177231BF000000803F7B
:1000900008000000BE922449123EABAAAA2ABECD97
:1000A000CCCC4C3E00000080BEABAAAAAA3E000009
:1000B0000000BF000000803F000000000008417801
:1000C000D3BB4387D1133D190E3CC3BD4282AD2B38
:1000D0003E68EC8276BED98FE1A93E4C80EFFFBE30
:1000E00001C4FF7F3F000000000011241FBECFEFBE
:1000F000D8E0DEBFCDBF11E0A0E0B1E0E2E3FBE07D
:1001000002C005900D92A031B107D9F721E0A0E11E
:10011000B1E001C01D92A131B207E1F70E94FB00DE
:100120000C9497050C9400001092C50087E680930C
:10013000C400E1ECF0E0808188608083E2ECF0E0D4
:100140008081866080830895E0ECF0E090819923BF
:10015000E9F38093C600089585B5856085BD16BC1A
:100160000895CF92DF92EF92FF926B017C0120E025
:1001700030E040E251E40E943702882304F120E09D
:1001800030E048EC52E4C701B6010E9437028823F0
:10019000CCF020E030E04AE754E4C701B6010E9409
:1001A0003702082E000C990B8827990F881F992772
:1001B00023E030E0A901481B590BCA0105C080E0CB
:1001C00090E002C081E090E0FF90EF90DF90CF9050
:1001D000089590E0413009F44096611103C0805ABF
:1001E0009F4F0895613019F4805C9F4F08956230ED
:1001F00009F480960895CF93DF93CDB7DEB7659766
:100200000FB6F894DEBF0FBECDBF259A0E949400B2
:100210000E94AC0080E1E0E0F1E0DE011196019087
:100220000D928A95E1F7812C912C0F2EF3E06F2E21
:10023000712CF02D212C322C21E02D8BF401EE0FAE
:10024000FF1FEE0FFF1F81E090E08C0F9D1FE80F56
:10025000F91FC080D180E280F380C701B6010E94FF
:10026000B1005C01BB2423014A185B08B201052CD4
:10027000000C880B990B0E9474029B01AC0160E09A
:1002800070E080E291E40E949103A70196010E9430
:10029000240320E030E040E05FE30E94CB010E94B5
:1002A0003C027B01FE0175966F0183010A151B0557
:1002B00031F44D89141415041CF0432D01C0432D55
:1002C0009701ADECBCEC0E948805969587959695B4
:1002D0008795969587959C01220F331F880F991F4C
:1002E000880F991F880F991F820F931F602FFE2D73
:1002F000F81B8F2F0E94E900F60182936F0197018E
:10030000ADECBCEC0E9488057C01F694E794F69471
:10031000E794F694E7940150110940F630C0E1E10A
:10032000F0E0EC0FFD1FE10FF11D80810E94A400A1
:100330008FED9EE20197F1F700C000001F5F1430BF
:1003400009F4132D86B5833D50F316BC809110013E
:10035000823341F4209210012D9A93E08916910482
:1003600039F40AC0809110018F5F80931001D7CFBC
:10037000EFEF8E1A9E0A62CF812C912C5FCF898974
:100380000E94A4008FED9EE20197F1F700C00000EB
:1003900011E0D8CF5058BB27AA270E94E2010C9445
:1003A000EA020E94DC0238F00E94E30220F039F4F5
:1003B0009F3F19F426F40C94D9020EF4E095E7FB64
:1003C0000C94D302E92F0E94FB0258F3BA1762077C
:1003D00073078407950720F079F4A6F50C941D03A4
:1003E0000EF4E0950B2EBA2FA02D0B01B901900150
:1003F0000C01CA01A0011124FF27591B99F0593F94
:1004000050F4503E68F11A16F040A22F232F342FDB
:100410004427585FF3CF469537952795A795F04029
:100420005395C9F77EF41F16BA0B620B730B840B3E
:10043000BAF09150A1F0FF0FBB1F661F771F881FF6
:10044000C2F70EC0BA0F621F731F841F48F487954E
:1004500077956795B795F7959E3F08F0B0CF939540
:10046000880F08F09927EE0F9795879508950E94B9
:10047000AF0208F481E008950E9443026894B1112C
:100480000C941E0308950E94030388F09F5798F070
:10049000B92F9927B751B0F0E1F0660F771F881F89
:1004A000991F1AF0BA95C9F714C0B13091F00E94A3
:1004B0001D03B1E008950C941D03672F782F882742
:1004C000B85F39F0B93FCCF3869577956795B395CA
:1004D000D9F73EF490958095709561957F4F8F4F39
:1004E0009F4F0895E89409C097FB3EF4909580953E
:1004F000709561957F4F8F4F9F4F9923A9F0F92FEA
:1005000096E9BB279395F695879577956795B79567
:10051000F111F8CFFAF4BB0F11F460FF1BC06F5F4D
:100520007F4F8F4F9F4F16C0882311F096E911C05F
:10053000772321F09EE8872F762F05C0662371F080
:1005400096E8862F70E060E02AF09A95660F771F94
:10055000881FDAF7880F9695879597F90895990F70
:100560000008550FAA0BE0E8FEEF16161706E8077D
:10057000F907C0F012161306E407F50798F0621B9E
:10058000730B840B950B39F40A2661F0232B242B73
:10059000252B21F408950A2609F4A140A6958FEF92
:1005A000811D811D089597F99F6780E870E060E0E4
:1005B00008959FEF80EC089500240A9416161706FC
:1005C00018060906089500240A9412161306140644
:1005D00005060895092E0394000C11F4882352F0A7
:1005E000BB0F40F4BF2B11F460FF04C06F5F7F4F5F
:1005F0008F4F9F4F089557FD9058440F551F59F046
:100600005F3F71F04795880F97FB991F61F09F3FFF
:1006100079F087950895121613061406551FF2CF28
:100620004695F1DF08C0161617061806991FF1CF78
:1006300086957105610508940895E894BB2766279F
:100640007727CB0197F908950E9437030C94EA02AB
:100650000E94DC0238F00E94E30220F0952311F0A2
:100660000C94D3020C94D90211240C941E030E9402
:10067000FB0270F3959FC1F3950F50E0551F629FE9
:10068000F001729FBB27F00DB11D639FAA27F00DEB
:10069000B11DAA1F649F6627B00DA11D661F829F12
:1006A0002227B00DA11D621F739FB00DA11D621FF7
:1006B000839FA00D611D221F749F3327A00D611D14
:1006C000231F849F600D211D822F762F6A2F1124F6
:1006D0009F5750409AF0F1F088234AF0EE0FFF1F29
:1006E000BB1F661F771F881F91505040A9F79E3F80
:1006F000510580F00C94D3020C941E035F3FE4F389
:10070000983ED4F3869577956795B795F795E795D5
:100710009F5FC1F7FE2B880F911D9695879597F9DE
:100720000895FA01EE0FFF1F309621053105A1F162
:100730006115710561F48038BFE39B0749F1689446
:100740009038810561F08038BFEF9B0741F0992315
:100750004AF5FF3FE1053105210519F1E8940894B8
:10076000E795D901AA2329F4AB2FBE2FF85FD0F368
:1007700010C0FF5F70F4A695E0F7F73950F019F05C
:10078000FF3A38F49F779F930DD00F9007FC905855
:10079000089546F00C94D90260E070E080E89FE391
:1007A00008954FE79F775F934F933F932F930E9456
:1007B0008C042F913F914F915F910E9424030C94E0
:1007C000E90329F416F00C94D3020C941D030C9445
:1007D000D9020E940303A8F39638A0F707F80F92F6
:1007E000E8942BE33AEA48EB5FE70E943A030F9262
:1007F0000F920F924DB75EB70F920E94D404E8E6B5
:10080000F0E00E941B044F915F91EF91FF91E595FD
:10081000EE1FFF1F49F0FE57E0684427EE0F441F0C
:10082000FA95E1F74195550B0E944E040F9007FE93
:100830000C9442040895DF93CF931F930F93FF927C
:10084000EF92DF927B018C01689406C0DA2EEF01F3
:100850000E943703FE01E894A591259135914591B9
:100860005591A6F3EF010E94E201FE019701A80154
:10087000DA9469F7DF90EF90FF900F911F91CF917D
:10088000DF9108959B01AC0160E070E080E89FE398
:100890000C9408050C94D3020C947A050E9403036F
:1008A000D8F39923C9F3940F511DA3F391505040ED
:1008B00094F059F0882332F0660F771F881F91500B
:1008C0005040C1F79E3F51052CF7880F911D96951A
:1008D000879597F908955F3FACF0983E9CF0BB2751
:1008E000869577956795B79508F4B1609395C1F7AC
:1008F000BB0F58F711F460FFE8CF6F5F7F4F8F4F4A
:100900009F4FE3CF0C941E0316F00C947A050C94C1
:10091000D90268940C94D3020E940303A8F399238C
:10092000C1F3AEF3DF93CF931F930F93FF92C92FC1
:10093000DD2788232AF02197660F771F881FDAF7B3
:1009400020E030E040E85FEB9FE3883920F0803E14
:1009500038F021968F770E94CB01E0E9F0E004C0E7
:100960000E94CB01EDEBF0E00E941B048B01BE0165
:10097000EC01FB2E6F5771097595771F880B990B4A
:100980000E94740228E132E741E35FE30E943703EB
:10099000AF2D9801AE01FF900F911F91CF91DF9184
:1009A0000E94E2010C94EA02FA01DC01AA0FBB1FCB
:1009B0009B01AC01BF5728F42227332744275078E6
:1009C00020C0B75190F4AB2F00244695379527955A
:1009D000011CA395D2F3002071F0220F331F441F96
:1009E000B395DAF30ED00C94CA0161307105A0E81A
:1009F0008A07B94630F49B01AC0166277727882720
:100A00009078309621F02083318342835383089578
:100A10000E941C050C94EA020E94E30258F00E9416
:100A2000DC0240F029F45F3F29F00C94D30251110D
:100A30000C941E030C94D9020E94FB0268F39923C4
:100A4000B1F3552391F3951B550BBB27AA276217CA
:100A50007307840738F09F5F5F4F220F331F441FD7
:100A6000AA1FA9F335D00E2E3AF0E0E832D091500B
:100A70005040E695001CCAF72BD0FE2F29D0660FF8
:100A8000771F881FBB1F261737074807AB07B0E83B
:100A900009F0BB0B802DBF01FF2793585F4F3AF041
:100AA0009E3F510578F00C94D3020C941E035F3FD7
:100AB000E4F3983ED4F3869577956795B795F795C7
:100AC0009F5FC9F7880F911D9695879597F90895AF
:100AD000E1E0660F771F881FBB1F6217730784074B
:100AE000BA0720F0621B730B840BBA0BEE1F88F75A
:100AF000E09508959F3F31F0915020F487957795C8
:100B00006795B795880F911D9695879597F90895E4
:100B1000A29FB001B39FC001A39F700D811D11243E
:100B2000911DB29F700D811D1124911D0895F8949F
:020B3000FFCFF5
:100B32000000D24300C8D945000028424861C142A2
:00000001FF
