:100000000C9434000C943E000C943E000C943E0082
:100010000C943E000C943E000C943E000C943E0068
:100020000C943E000C943E000C943E000C943E0058
:100030000C943E000C943E000C943E000C943E0048
:100040000C943E000C943E000C943E000C943E0038
:100050000C943E000C943E000C943E000C943E0028
:100060000C943E000C943E0011241FBECFEFD8E04C
:10007000DEBFCDBF0E946A000C94A7000C94000064
:100080001092C50087E68093C400E1ECF0E0808127
:1000900088608083E2ECF0E0808186608083089550
:1000A000E0ECF0E090819923E9F38093C600089595
:1000B00090E0413009F44096611103C0805A9F4F8F
:1000C0000895613019F4805C9F4F0895623009F4FF
:1000D00080960895CF93DF9300D000D0CDB7DEB7E0
:1000E0000E944000CE0101967C016E0195E0C90E90
:1000F000D11C8701602F6E1940E089E00E945800F2
:10010000F80181938F01EC15FD05A1F714C0E1E022
:10011000F0E0EC0FFD1FE10FF11D80810E94500007
:100120008FE39FE10197F1F700C000001F5F1430DB
:1001300071F7102FECCF89810E945000EFE3FFE1AF
:100140003197F1F700C0000011E000E0E0CFF89433
:02015000FFCFDF
:00000001FF
