:100000000C9434000C9449000C9449000C94490061
:100010000C9449000C9449000C9449000C9449003C
:100020000C9449000C9449000C9449000C948B00EA
:100030000C9449000C9449000C9449000C9449001C
:100040000C9449000C9449000C9449000C9449000C
:100050000C9449000C9449000C9449000C944900FC
:100060000C9449000C94490011241FBECFEFD8E036
:10007000DEBFCDBF11E0A0E0B1E0EEE3F1E002C0F1
:1000800005900D92A230B107D9F70E945C000C9444
:100090009D000C94000089E09DE39093890080937B
:1000A0008800E1E8F0E080818D608083EFE6F0E099
:1000B000808182608083089578940E944B00259A05
:1000C00027982D9841E050E0E8E8F0E028E03DE393
:1000D000A2E0B0E06AE67CE71F99FECF80910001C4
:1000E00090910101019739F4B0930101A0930001AF
:1000F0007183608306C050930101409300013183F6
:1001000020838FEF91EEC4E081509040C040E1F732
:1001100000C00000E1CF1F920F920FB60F92112482
:100120008F939F9395B180E2892785B99F918F9195
:0E0130000F900FBE0F901F901895F894FFCF00
:02013E000100BE
:00000001FF
